{
	"Todos.sol": {
		"Todos": {
			"abi": [
				{
					"inputs": [
						{
							"internalType": "uint256",
							"name": "_index",
							"type": "uint256"
						}
					],
					"name": "completeToggle",
					"outputs": [],
					"stateMutability": "nonpayable",
					"type": "function"
				},
				{
					"inputs": [
						{
							"internalType": "string",
							"name": "_text",
							"type": "string"
						}
					],
					"name": "create",
					"outputs": [],
					"stateMutability": "nonpayable",
					"type": "function"
				},
				{
					"inputs": [
						{
							"internalType": "uint256",
							"name": "_index",
							"type": "uint256"
						}
					],
					"name": "get",
					"outputs": [
						{
							"internalType": "string",
							"name": "text",
							"type": "string"
						},
						{
							"internalType": "bool",
							"name": "isCompleted",
							"type": "bool"
						}
					],
					"stateMutability": "view",
					"type": "function"
				},
				{
					"inputs": [
						{
							"internalType": "uint256",
							"name": "",
							"type": "uint256"
						}
					],
					"name": "todos",
					"outputs": [
						{
							"internalType": "string",
							"name": "text",
							"type": "string"
						},
						{
							"internalType": "bool",
							"name": "isCompleted",
							"type": "bool"
						}
					],
					"stateMutability": "view",
					"type": "function"
				},
				{
					"inputs": [
						{
							"internalType": "uint256",
							"name": "_index",
							"type": "uint256"
						},
						{
							"internalType": "string",
							"name": "_text",
							"type": "string"
						}
					],
					"name": "updateText",
					"outputs": [],
					"stateMutability": "nonpayable",
					"type": "function"
				}
			],
			"devdoc": {
				"kind": "dev",
				"methods": {},
				"version": 1
			},
			"evm": {
				"assembly": "    /* \"Todos.sol\":94:680  contract Todos {... */\n  mstore(0x40, 0x80)\n  callvalue\n  dup1\n  iszero\n  tag_1\n  jumpi\n  0x00\n  dup1\n  revert\ntag_1:\n  pop\n  dataSize(sub_0)\n  dup1\n  dataOffset(sub_0)\n  0x00\n  codecopy\n  0x00\n  return\nstop\n\nsub_0: assembly {\n        /* \"Todos.sol\":94:680  contract Todos {... */\n      mstore(0x40, 0x80)\n      callvalue\n      dup1\n      iszero\n      tag_1\n      jumpi\n      0x00\n      dup1\n      revert\n    tag_1:\n      pop\n      jumpi(tag_2, lt(calldatasize, 0x04))\n      shr(0xe0, calldataload(0x00))\n      dup1\n      0x9507d39a\n      eq\n      tag_3\n      jumpi\n      dup1\n      0x9527744a\n      eq\n      tag_4\n      jumpi\n      dup1\n      0xb6a46b3b\n      eq\n      tag_5\n      jumpi\n      dup1\n      0xbc8bc2b4\n      eq\n      tag_6\n      jumpi\n      dup1\n      0xcd111614\n      eq\n      tag_7\n      jumpi\n    tag_2:\n      0x00\n      dup1\n      revert\n        /* \"Todos.sol\":240:420  function get(uint _index) public view returns(string memory text, bool isCompleted) {... */\n    tag_3:\n      tag_8\n      0x04\n      dup1\n      calldatasize\n      sub\n      dup2\n      add\n      swap1\n      tag_9\n      swap2\n      swap1\n      tag_10\n      jump\t// in\n    tag_9:\n      tag_11\n      jump\t// in\n    tag_8:\n      mload(0x40)\n      tag_12\n      swap3\n      swap2\n      swap1\n      tag_13\n      jump\t// in\n    tag_12:\n      mload(0x40)\n      dup1\n      swap2\n      sub\n      swap1\n      return\n        /* \"Todos.sol\":538:678  function completeToggle(uint _index) public {... */\n    tag_4:\n      tag_14\n      0x04\n      dup1\n      calldatasize\n      sub\n      dup2\n      add\n      swap1\n      tag_15\n      swap2\n      swap1\n      tag_10\n      jump\t// in\n    tag_15:\n      tag_16\n      jump\t// in\n    tag_14:\n      stop\n        /* \"Todos.sol\":141:234  function create(string calldata _text) public {... */\n    tag_5:\n      tag_17\n      0x04\n      dup1\n      calldatasize\n      sub\n      dup2\n      add\n      swap1\n      tag_18\n      swap2\n      swap1\n      tag_19\n      jump\t// in\n    tag_18:\n      tag_20\n      jump\t// in\n    tag_17:\n      stop\n        /* \"Todos.sol\":115:134  Todo[] public todos */\n    tag_6:\n      tag_21\n      0x04\n      dup1\n      calldatasize\n      sub\n      dup2\n      add\n      swap1\n      tag_22\n      swap2\n      swap1\n      tag_10\n      jump\t// in\n    tag_22:\n      tag_23\n      jump\t// in\n    tag_21:\n      mload(0x40)\n      tag_24\n      swap3\n      swap2\n      swap1\n      tag_13\n      jump\t// in\n    tag_24:\n      mload(0x40)\n      dup1\n      swap2\n      sub\n      swap1\n      return\n        /* \"Todos.sol\":426:532  function updateText(uint _index, string calldata _text) public {... */\n    tag_7:\n      tag_25\n      0x04\n      dup1\n      calldatasize\n      sub\n      dup2\n      add\n      swap1\n      tag_26\n      swap2\n      swap1\n      tag_27\n      jump\t// in\n    tag_26:\n      tag_28\n      jump\t// in\n    tag_25:\n      stop\n        /* \"Todos.sol\":240:420  function get(uint _index) public view returns(string memory text, bool isCompleted) {... */\n    tag_11:\n        /* \"Todos.sol\":286:304  string memory text */\n      0x60\n        /* \"Todos.sol\":306:322  bool isCompleted */\n      0x00\n        /* \"Todos.sol\":334:351  Todo storage todo */\n      dup1\n        /* \"Todos.sol\":354:359  todos */\n      0x00\n        /* \"Todos.sol\":360:366  _index */\n      dup5\n        /* \"Todos.sol\":354:367  todos[_index] */\n      dup2\n      sload\n      dup2\n      lt\n      tag_30\n      jumpi\n      tag_31\n      tag_32\n      jump\t// in\n    tag_31:\n    tag_30:\n      swap1\n      0x00\n      mstore\n      keccak256(0x00, 0x20)\n      swap1\n      0x02\n      mul\n      add\n        /* \"Todos.sol\":334:367  Todo storage todo = todos[_index] */\n      swap1\n      pop\n        /* \"Todos.sol\":385:389  todo */\n      dup1\n        /* \"Todos.sol\":385:394  todo.text */\n      0x00\n      add\n        /* \"Todos.sol\":396:400  todo */\n      dup2\n        /* \"Todos.sol\":396:412  todo.isCompleted */\n      0x01\n      add\n      0x00\n      swap1\n      sload\n      swap1\n      0x0100\n      exp\n      swap1\n      div\n      0xff\n      and\n        /* \"Todos.sol\":377:413  return (todo.text, todo.isCompleted) */\n      dup2\n      dup1\n      sload\n      tag_34\n      swap1\n      tag_35\n      jump\t// in\n    tag_34:\n      dup1\n      0x1f\n      add\n      0x20\n      dup1\n      swap2\n      div\n      mul\n      0x20\n      add\n      mload(0x40)\n      swap1\n      dup2\n      add\n      0x40\n      mstore\n      dup1\n      swap3\n      swap2\n      swap1\n      dup2\n      dup2\n      mstore\n      0x20\n      add\n      dup3\n      dup1\n      sload\n      tag_36\n      swap1\n      tag_35\n      jump\t// in\n    tag_36:\n      dup1\n      iszero\n      tag_37\n      jumpi\n      dup1\n      0x1f\n      lt\n      tag_38\n      jumpi\n      0x0100\n      dup1\n      dup4\n      sload\n      div\n      mul\n      dup4\n      mstore\n      swap2\n      0x20\n      add\n      swap2\n      jump(tag_37)\n    tag_38:\n      dup3\n      add\n      swap2\n      swap1\n      0x00\n      mstore\n      keccak256(0x00, 0x20)\n      swap1\n    tag_39:\n      dup2\n      sload\n      dup2\n      mstore\n      swap1\n      0x01\n      add\n      swap1\n      0x20\n      add\n      dup1\n      dup4\n      gt\n      tag_39\n      jumpi\n      dup3\n      swap1\n      sub\n      0x1f\n      and\n      dup3\n      add\n      swap2\n    tag_37:\n      pop\n      pop\n      pop\n      pop\n      pop\n      swap2\n      pop\n      swap3\n      pop\n      swap3\n      pop\n      pop\n        /* \"Todos.sol\":240:420  function get(uint _index) public view returns(string memory text, bool isCompleted) {... */\n      swap2\n      pop\n      swap2\n      jump\t// out\n        /* \"Todos.sol\":538:678  function completeToggle(uint _index) public {... */\n    tag_16:\n        /* \"Todos.sol\":592:609  Todo storage todo */\n      0x00\n        /* \"Todos.sol\":612:617  todos */\n      dup1\n        /* \"Todos.sol\":618:624  _index */\n      dup3\n        /* \"Todos.sol\":612:625  todos[_index] */\n      dup2\n      sload\n      dup2\n      lt\n      tag_41\n      jumpi\n      tag_42\n      tag_32\n      jump\t// in\n    tag_42:\n    tag_41:\n      swap1\n      0x00\n      mstore\n      keccak256(0x00, 0x20)\n      swap1\n      0x02\n      mul\n      add\n        /* \"Todos.sol\":592:625  Todo storage todo = todos[_index] */\n      swap1\n      pop\n        /* \"Todos.sol\":655:659  todo */\n      dup1\n        /* \"Todos.sol\":655:671  todo.isCompleted */\n      0x01\n      add\n      0x00\n      swap1\n      sload\n      swap1\n      0x0100\n      exp\n      swap1\n      div\n      0xff\n      and\n        /* \"Todos.sol\":654:671  !todo.isCompleted */\n      iszero\n        /* \"Todos.sol\":635:639  todo */\n      dup2\n        /* \"Todos.sol\":635:651  todo.isCompleted */\n      0x01\n      add\n      0x00\n        /* \"Todos.sol\":635:671  todo.isCompleted = !todo.isCompleted */\n      0x0100\n      exp\n      dup2\n      sload\n      dup2\n      0xff\n      mul\n      not\n      and\n      swap1\n      dup4\n      iszero\n      iszero\n      mul\n      or\n      swap1\n      sstore\n      pop\n        /* \"Todos.sol\":582:678  {... */\n      pop\n        /* \"Todos.sol\":538:678  function completeToggle(uint _index) public {... */\n      pop\n      jump\t// out\n        /* \"Todos.sol\":141:234  function create(string calldata _text) public {... */\n    tag_20:\n        /* \"Todos.sol\":197:202  todos */\n      0x00\n        /* \"Todos.sol\":208:226  Todo(_text, false) */\n      mload(0x40)\n      dup1\n      0x40\n      add\n      0x40\n      mstore\n      dup1\n        /* \"Todos.sol\":213:218  _text */\n      dup5\n      dup5\n        /* \"Todos.sol\":208:226  Todo(_text, false) */\n      dup1\n      dup1\n      0x1f\n      add\n      0x20\n      dup1\n      swap2\n      div\n      mul\n      0x20\n      add\n      mload(0x40)\n      swap1\n      dup2\n      add\n      0x40\n      mstore\n      dup1\n      swap4\n      swap3\n      swap2\n      swap1\n      dup2\n      dup2\n      mstore\n      0x20\n      add\n      dup4\n      dup4\n      dup1\n      dup3\n      dup5\n      calldatacopy\n      0x00\n      dup2\n      dup5\n      add\n      mstore\n      not(0x1f)\n      0x1f\n      dup3\n      add\n      and\n      swap1\n      pop\n      dup1\n      dup4\n      add\n      swap3\n      pop\n      pop\n      pop\n      pop\n      pop\n      pop\n      pop\n      dup2\n      mstore\n      0x20\n      add\n        /* \"Todos.sol\":220:225  false */\n      0x00\n        /* \"Todos.sol\":208:226  Todo(_text, false) */\n      iszero\n      iszero\n      dup2\n      mstore\n      pop\n        /* \"Todos.sol\":197:227  todos.push(Todo(_text, false)) */\n      swap1\n      dup1\n      0x01\n      dup2\n      sload\n      add\n      dup1\n      dup3\n      sstore\n      dup1\n      swap2\n      pop\n      pop\n      0x01\n      swap1\n      sub\n      swap1\n      0x00\n      mstore\n      keccak256(0x00, 0x20)\n      swap1\n      0x02\n      mul\n      add\n      0x00\n      swap1\n      swap2\n      swap1\n      swap2\n      swap1\n      swap2\n      pop\n      0x00\n      dup3\n      add\n      mload\n      dup2\n      0x00\n      add\n      swap1\n      dup2\n      tag_46\n      swap2\n      swap1\n      tag_47\n      jump\t// in\n    tag_46:\n      pop\n      0x20\n      dup3\n      add\n      mload\n      dup2\n      0x01\n      add\n      exp(0x0100, 0x00)\n      dup2\n      sload\n      dup2\n      0xff\n      mul\n      not\n      and\n      swap1\n      dup4\n      iszero\n      iszero\n      mul\n      or\n      swap1\n      sstore\n      pop\n      pop\n      pop\n        /* \"Todos.sol\":141:234  function create(string calldata _text) public {... */\n      pop\n      pop\n      jump\t// out\n        /* \"Todos.sol\":115:134  Todo[] public todos */\n    tag_23:\n      0x00\n      dup2\n      dup2\n      sload\n      dup2\n      lt\n      tag_48\n      jumpi\n      0x00\n      dup1\n      revert\n    tag_48:\n      swap1\n      0x00\n      mstore\n      keccak256(0x00, 0x20)\n      swap1\n      0x02\n      mul\n      add\n      0x00\n      swap2\n      pop\n      swap1\n      pop\n      dup1\n      0x00\n      add\n      dup1\n      sload\n      tag_50\n      swap1\n      tag_35\n      jump\t// in\n    tag_50:\n      dup1\n      0x1f\n      add\n      0x20\n      dup1\n      swap2\n      div\n      mul\n      0x20\n      add\n      mload(0x40)\n      swap1\n      dup2\n      add\n      0x40\n      mstore\n      dup1\n      swap3\n      swap2\n      swap1\n      dup2\n      dup2\n      mstore\n      0x20\n      add\n      dup3\n      dup1\n      sload\n      tag_51\n      swap1\n      tag_35\n      jump\t// in\n    tag_51:\n      dup1\n      iszero\n      tag_52\n      jumpi\n      dup1\n      0x1f\n      lt\n      tag_53\n      jumpi\n      0x0100\n      dup1\n      dup4\n      sload\n      div\n      mul\n      dup4\n      mstore\n      swap2\n      0x20\n      add\n      swap2\n      jump(tag_52)\n    tag_53:\n      dup3\n      add\n      swap2\n      swap1\n      0x00\n      mstore\n      keccak256(0x00, 0x20)\n      swap1\n    tag_54:\n      dup2\n      sload\n      dup2\n      mstore\n      swap1\n      0x01\n      add\n      swap1\n      0x20\n      add\n      dup1\n      dup4\n      gt\n      tag_54\n      jumpi\n      dup3\n      swap1\n      sub\n      0x1f\n      and\n      dup3\n      add\n      swap2\n    tag_52:\n      pop\n      pop\n      pop\n      pop\n      pop\n      swap1\n      dup1\n      0x01\n      add\n      0x00\n      swap1\n      sload\n      swap1\n      0x0100\n      exp\n      swap1\n      div\n      0xff\n      and\n      swap1\n      pop\n      dup3\n      jump\t// out\n        /* \"Todos.sol\":426:532  function updateText(uint _index, string calldata _text) public {... */\n    tag_28:\n        /* \"Todos.sol\":520:525  _text */\n      dup2\n      dup2\n        /* \"Todos.sol\":499:504  todos */\n      0x00\n        /* \"Todos.sol\":505:511  _index */\n      dup6\n        /* \"Todos.sol\":499:512  todos[_index] */\n      dup2\n      sload\n      dup2\n      lt\n      tag_56\n      jumpi\n      tag_57\n      tag_32\n      jump\t// in\n    tag_57:\n    tag_56:\n      swap1\n      0x00\n      mstore\n      keccak256(0x00, 0x20)\n      swap1\n      0x02\n      mul\n      add\n        /* \"Todos.sol\":499:517  todos[_index].text */\n      0x00\n      add\n        /* \"Todos.sol\":499:525  todos[_index].text = _text */\n      swap2\n      dup3\n      tag_59\n      swap3\n      swap2\n      swap1\n      tag_60\n      jump\t// in\n    tag_59:\n      pop\n        /* \"Todos.sol\":426:532  function updateText(uint _index, string calldata _text) public {... */\n      pop\n      pop\n      pop\n      jump\t// out\n        /* \"#utility.yul\":88:205   */\n    tag_62:\n        /* \"#utility.yul\":197:198   */\n      0x00\n        /* \"#utility.yul\":194:195   */\n      dup1\n        /* \"#utility.yul\":187:199   */\n      revert\n        /* \"#utility.yul\":211:328   */\n    tag_63:\n        /* \"#utility.yul\":320:321   */\n      0x00\n        /* \"#utility.yul\":317:318   */\n      dup1\n        /* \"#utility.yul\":310:322   */\n      revert\n        /* \"#utility.yul\":334:411   */\n    tag_64:\n        /* \"#utility.yul\":371:378   */\n      0x00\n        /* \"#utility.yul\":400:405   */\n      dup2\n        /* \"#utility.yul\":389:405   */\n      swap1\n      pop\n        /* \"#utility.yul\":334:411   */\n      swap2\n      swap1\n      pop\n      jump\t// out\n        /* \"#utility.yul\":417:539   */\n    tag_65:\n        /* \"#utility.yul\":490:514   */\n      tag_102\n        /* \"#utility.yul\":508:513   */\n      dup2\n        /* \"#utility.yul\":490:514   */\n      tag_64\n      jump\t// in\n    tag_102:\n        /* \"#utility.yul\":483:488   */\n      dup2\n        /* \"#utility.yul\":480:515   */\n      eq\n        /* \"#utility.yul\":470:533   */\n      tag_103\n      jumpi\n        /* \"#utility.yul\":529:530   */\n      0x00\n        /* \"#utility.yul\":526:527   */\n      dup1\n        /* \"#utility.yul\":519:531   */\n      revert\n        /* \"#utility.yul\":470:533   */\n    tag_103:\n        /* \"#utility.yul\":417:539   */\n      pop\n      jump\t// out\n        /* \"#utility.yul\":545:684   */\n    tag_66:\n        /* \"#utility.yul\":591:596   */\n      0x00\n        /* \"#utility.yul\":629:635   */\n      dup2\n        /* \"#utility.yul\":616:636   */\n      calldataload\n        /* \"#utility.yul\":607:636   */\n      swap1\n      pop\n        /* \"#utility.yul\":645:678   */\n      tag_105\n        /* \"#utility.yul\":672:677   */\n      dup2\n        /* \"#utility.yul\":645:678   */\n      tag_65\n      jump\t// in\n    tag_105:\n        /* \"#utility.yul\":545:684   */\n      swap3\n      swap2\n      pop\n      pop\n      jump\t// out\n        /* \"#utility.yul\":690:1019   */\n    tag_10:\n        /* \"#utility.yul\":749:755   */\n      0x00\n        /* \"#utility.yul\":798:800   */\n      0x20\n        /* \"#utility.yul\":786:795   */\n      dup3\n        /* \"#utility.yul\":777:784   */\n      dup5\n        /* \"#utility.yul\":773:796   */\n      sub\n        /* \"#utility.yul\":769:801   */\n      slt\n        /* \"#utility.yul\":766:885   */\n      iszero\n      tag_107\n      jumpi\n        /* \"#utility.yul\":804:883   */\n      tag_108\n      tag_62\n      jump\t// in\n    tag_108:\n        /* \"#utility.yul\":766:885   */\n    tag_107:\n        /* \"#utility.yul\":924:925   */\n      0x00\n        /* \"#utility.yul\":949:1002   */\n      tag_109\n        /* \"#utility.yul\":994:1001   */\n      dup5\n        /* \"#utility.yul\":985:991   */\n      dup3\n        /* \"#utility.yul\":974:983   */\n      dup6\n        /* \"#utility.yul\":970:992   */\n      add\n        /* \"#utility.yul\":949:1002   */\n      tag_66\n      jump\t// in\n    tag_109:\n        /* \"#utility.yul\":939:1002   */\n      swap2\n      pop\n        /* \"#utility.yul\":895:1012   */\n      pop\n        /* \"#utility.yul\":690:1019   */\n      swap3\n      swap2\n      pop\n      pop\n      jump\t// out\n        /* \"#utility.yul\":1025:1124   */\n    tag_67:\n        /* \"#utility.yul\":1077:1083   */\n      0x00\n        /* \"#utility.yul\":1111:1116   */\n      dup2\n        /* \"#utility.yul\":1105:1117   */\n      mload\n        /* \"#utility.yul\":1095:1117   */\n      swap1\n      pop\n        /* \"#utility.yul\":1025:1124   */\n      swap2\n      swap1\n      pop\n      jump\t// out\n        /* \"#utility.yul\":1130:1299   */\n    tag_68:\n        /* \"#utility.yul\":1214:1225   */\n      0x00\n        /* \"#utility.yul\":1248:1254   */\n      dup3\n        /* \"#utility.yul\":1243:1246   */\n      dup3\n        /* \"#utility.yul\":1236:1255   */\n      mstore\n        /* \"#utility.yul\":1288:1292   */\n      0x20\n        /* \"#utility.yul\":1283:1286   */\n      dup3\n        /* \"#utility.yul\":1279:1293   */\n      add\n        /* \"#utility.yul\":1264:1293   */\n      swap1\n      pop\n        /* \"#utility.yul\":1130:1299   */\n      swap3\n      swap2\n      pop\n      pop\n      jump\t// out\n        /* \"#utility.yul\":1305:1551   */\n    tag_69:\n        /* \"#utility.yul\":1386:1387   */\n      0x00\n        /* \"#utility.yul\":1396:1509   */\n    tag_113:\n        /* \"#utility.yul\":1410:1416   */\n      dup4\n        /* \"#utility.yul\":1407:1408   */\n      dup2\n        /* \"#utility.yul\":1404:1417   */\n      lt\n        /* \"#utility.yul\":1396:1509   */\n      iszero\n      tag_115\n      jumpi\n        /* \"#utility.yul\":1495:1496   */\n      dup1\n        /* \"#utility.yul\":1490:1493   */\n      dup3\n        /* \"#utility.yul\":1486:1497   */\n      add\n        /* \"#utility.yul\":1480:1498   */\n      mload\n        /* \"#utility.yul\":1476:1477   */\n      dup2\n        /* \"#utility.yul\":1471:1474   */\n      dup5\n        /* \"#utility.yul\":1467:1478   */\n      add\n        /* \"#utility.yul\":1460:1499   */\n      mstore\n        /* \"#utility.yul\":1432:1434   */\n      0x20\n        /* \"#utility.yul\":1429:1430   */\n      dup2\n        /* \"#utility.yul\":1425:1435   */\n      add\n        /* \"#utility.yul\":1420:1435   */\n      swap1\n      pop\n        /* \"#utility.yul\":1396:1509   */\n      jump(tag_113)\n    tag_115:\n        /* \"#utility.yul\":1543:1544   */\n      0x00\n        /* \"#utility.yul\":1534:1540   */\n      dup5\n        /* \"#utility.yul\":1529:1532   */\n      dup5\n        /* \"#utility.yul\":1525:1541   */\n      add\n        /* \"#utility.yul\":1518:1545   */\n      mstore\n        /* \"#utility.yul\":1367:1551   */\n      pop\n        /* \"#utility.yul\":1305:1551   */\n      pop\n      pop\n      pop\n      jump\t// out\n        /* \"#utility.yul\":1557:1659   */\n    tag_70:\n        /* \"#utility.yul\":1598:1604   */\n      0x00\n        /* \"#utility.yul\":1649:1651   */\n      0x1f\n        /* \"#utility.yul\":1645:1652   */\n      not\n        /* \"#utility.yul\":1640:1642   */\n      0x1f\n        /* \"#utility.yul\":1633:1638   */\n      dup4\n        /* \"#utility.yul\":1629:1643   */\n      add\n        /* \"#utility.yul\":1625:1653   */\n      and\n        /* \"#utility.yul\":1615:1653   */\n      swap1\n      pop\n        /* \"#utility.yul\":1557:1659   */\n      swap2\n      swap1\n      pop\n      jump\t// out\n        /* \"#utility.yul\":1665:2042   */\n    tag_71:\n        /* \"#utility.yul\":1753:1756   */\n      0x00\n        /* \"#utility.yul\":1781:1820   */\n      tag_118\n        /* \"#utility.yul\":1814:1819   */\n      dup3\n        /* \"#utility.yul\":1781:1820   */\n      tag_67\n      jump\t// in\n    tag_118:\n        /* \"#utility.yul\":1836:1907   */\n      tag_119\n        /* \"#utility.yul\":1900:1906   */\n      dup2\n        /* \"#utility.yul\":1895:1898   */\n      dup6\n        /* \"#utility.yul\":1836:1907   */\n      tag_68\n      jump\t// in\n    tag_119:\n        /* \"#utility.yul\":1829:1907   */\n      swap4\n      pop\n        /* \"#utility.yul\":1916:1981   */\n      tag_120\n        /* \"#utility.yul\":1974:1980   */\n      dup2\n        /* \"#utility.yul\":1969:1972   */\n      dup6\n        /* \"#utility.yul\":1962:1966   */\n      0x20\n        /* \"#utility.yul\":1955:1960   */\n      dup7\n        /* \"#utility.yul\":1951:1967   */\n      add\n        /* \"#utility.yul\":1916:1981   */\n      tag_69\n      jump\t// in\n    tag_120:\n        /* \"#utility.yul\":2006:2035   */\n      tag_121\n        /* \"#utility.yul\":2028:2034   */\n      dup2\n        /* \"#utility.yul\":2006:2035   */\n      tag_70\n      jump\t// in\n    tag_121:\n        /* \"#utility.yul\":2001:2004   */\n      dup5\n        /* \"#utility.yul\":1997:2036   */\n      add\n        /* \"#utility.yul\":1990:2036   */\n      swap2\n      pop\n        /* \"#utility.yul\":1757:2042   */\n      pop\n        /* \"#utility.yul\":1665:2042   */\n      swap3\n      swap2\n      pop\n      pop\n      jump\t// out\n        /* \"#utility.yul\":2048:2138   */\n    tag_72:\n        /* \"#utility.yul\":2082:2089   */\n      0x00\n        /* \"#utility.yul\":2125:2130   */\n      dup2\n        /* \"#utility.yul\":2118:2131   */\n      iszero\n        /* \"#utility.yul\":2111:2132   */\n      iszero\n        /* \"#utility.yul\":2100:2132   */\n      swap1\n      pop\n        /* \"#utility.yul\":2048:2138   */\n      swap2\n      swap1\n      pop\n      jump\t// out\n        /* \"#utility.yul\":2144:2253   */\n    tag_73:\n        /* \"#utility.yul\":2225:2246   */\n      tag_124\n        /* \"#utility.yul\":2240:2245   */\n      dup2\n        /* \"#utility.yul\":2225:2246   */\n      tag_72\n      jump\t// in\n    tag_124:\n        /* \"#utility.yul\":2220:2223   */\n      dup3\n        /* \"#utility.yul\":2213:2247   */\n      mstore\n        /* \"#utility.yul\":2144:2253   */\n      pop\n      pop\n      jump\t// out\n        /* \"#utility.yul\":2259:2670   */\n    tag_13:\n        /* \"#utility.yul\":2394:2398   */\n      0x00\n        /* \"#utility.yul\":2432:2434   */\n      0x40\n        /* \"#utility.yul\":2421:2430   */\n      dup3\n        /* \"#utility.yul\":2417:2435   */\n      add\n        /* \"#utility.yul\":2409:2435   */\n      swap1\n      pop\n        /* \"#utility.yul\":2481:2490   */\n      dup2\n        /* \"#utility.yul\":2475:2479   */\n      dup2\n        /* \"#utility.yul\":2471:2491   */\n      sub\n        /* \"#utility.yul\":2467:2468   */\n      0x00\n        /* \"#utility.yul\":2456:2465   */\n      dup4\n        /* \"#utility.yul\":2452:2469   */\n      add\n        /* \"#utility.yul\":2445:2492   */\n      mstore\n        /* \"#utility.yul\":2509:2587   */\n      tag_126\n        /* \"#utility.yul\":2582:2586   */\n      dup2\n        /* \"#utility.yul\":2573:2579   */\n      dup6\n        /* \"#utility.yul\":2509:2587   */\n      tag_71\n      jump\t// in\n    tag_126:\n        /* \"#utility.yul\":2501:2587   */\n      swap1\n      pop\n        /* \"#utility.yul\":2597:2663   */\n      tag_127\n        /* \"#utility.yul\":2659:2661   */\n      0x20\n        /* \"#utility.yul\":2648:2657   */\n      dup4\n        /* \"#utility.yul\":2644:2662   */\n      add\n        /* \"#utility.yul\":2635:2641   */\n      dup5\n        /* \"#utility.yul\":2597:2663   */\n      tag_73\n      jump\t// in\n    tag_127:\n        /* \"#utility.yul\":2259:2670   */\n      swap4\n      swap3\n      pop\n      pop\n      pop\n      jump\t// out\n        /* \"#utility.yul\":2676:2793   */\n    tag_74:\n        /* \"#utility.yul\":2785:2786   */\n      0x00\n        /* \"#utility.yul\":2782:2783   */\n      dup1\n        /* \"#utility.yul\":2775:2787   */\n      revert\n        /* \"#utility.yul\":2799:2916   */\n    tag_75:\n        /* \"#utility.yul\":2908:2909   */\n      0x00\n        /* \"#utility.yul\":2905:2906   */\n      dup1\n        /* \"#utility.yul\":2898:2910   */\n      revert\n        /* \"#utility.yul\":2922:3039   */\n    tag_76:\n        /* \"#utility.yul\":3031:3032   */\n      0x00\n        /* \"#utility.yul\":3028:3029   */\n      dup1\n        /* \"#utility.yul\":3021:3033   */\n      revert\n        /* \"#utility.yul\":3059:3612   */\n    tag_77:\n        /* \"#utility.yul\":3117:3125   */\n      0x00\n        /* \"#utility.yul\":3127:3133   */\n      dup1\n        /* \"#utility.yul\":3177:3180   */\n      dup4\n        /* \"#utility.yul\":3170:3174   */\n      0x1f\n        /* \"#utility.yul\":3162:3168   */\n      dup5\n        /* \"#utility.yul\":3158:3175   */\n      add\n        /* \"#utility.yul\":3154:3181   */\n      slt\n        /* \"#utility.yul\":3144:3266   */\n      tag_132\n      jumpi\n        /* \"#utility.yul\":3185:3264   */\n      tag_133\n      tag_74\n      jump\t// in\n    tag_133:\n        /* \"#utility.yul\":3144:3266   */\n    tag_132:\n        /* \"#utility.yul\":3298:3304   */\n      dup3\n        /* \"#utility.yul\":3285:3305   */\n      calldataload\n        /* \"#utility.yul\":3275:3305   */\n      swap1\n      pop\n        /* \"#utility.yul\":3328:3346   */\n      0xffffffffffffffff\n        /* \"#utility.yul\":3320:3326   */\n      dup2\n        /* \"#utility.yul\":3317:3347   */\n      gt\n        /* \"#utility.yul\":3314:3431   */\n      iszero\n      tag_134\n      jumpi\n        /* \"#utility.yul\":3350:3429   */\n      tag_135\n      tag_75\n      jump\t// in\n    tag_135:\n        /* \"#utility.yul\":3314:3431   */\n    tag_134:\n        /* \"#utility.yul\":3464:3468   */\n      0x20\n        /* \"#utility.yul\":3456:3462   */\n      dup4\n        /* \"#utility.yul\":3452:3469   */\n      add\n        /* \"#utility.yul\":3440:3469   */\n      swap2\n      pop\n        /* \"#utility.yul\":3518:3521   */\n      dup4\n        /* \"#utility.yul\":3510:3514   */\n      0x01\n        /* \"#utility.yul\":3502:3508   */\n      dup3\n        /* \"#utility.yul\":3498:3515   */\n      mul\n        /* \"#utility.yul\":3488:3496   */\n      dup4\n        /* \"#utility.yul\":3484:3516   */\n      add\n        /* \"#utility.yul\":3481:3522   */\n      gt\n        /* \"#utility.yul\":3478:3606   */\n      iszero\n      tag_136\n      jumpi\n        /* \"#utility.yul\":3525:3604   */\n      tag_137\n      tag_76\n      jump\t// in\n    tag_137:\n        /* \"#utility.yul\":3478:3606   */\n    tag_136:\n        /* \"#utility.yul\":3059:3612   */\n      swap3\n      pop\n      swap3\n      swap1\n      pop\n      jump\t// out\n        /* \"#utility.yul\":3618:4147   */\n    tag_19:\n        /* \"#utility.yul\":3689:3695   */\n      0x00\n        /* \"#utility.yul\":3697:3703   */\n      dup1\n        /* \"#utility.yul\":3746:3748   */\n      0x20\n        /* \"#utility.yul\":3734:3743   */\n      dup4\n        /* \"#utility.yul\":3725:3732   */\n      dup6\n        /* \"#utility.yul\":3721:3744   */\n      sub\n        /* \"#utility.yul\":3717:3749   */\n      slt\n        /* \"#utility.yul\":3714:3833   */\n      iszero\n      tag_139\n      jumpi\n        /* \"#utility.yul\":3752:3831   */\n      tag_140\n      tag_62\n      jump\t// in\n    tag_140:\n        /* \"#utility.yul\":3714:3833   */\n    tag_139:\n        /* \"#utility.yul\":3900:3901   */\n      0x00\n        /* \"#utility.yul\":3889:3898   */\n      dup4\n        /* \"#utility.yul\":3885:3902   */\n      add\n        /* \"#utility.yul\":3872:3903   */\n      calldataload\n        /* \"#utility.yul\":3930:3948   */\n      0xffffffffffffffff\n        /* \"#utility.yul\":3922:3928   */\n      dup2\n        /* \"#utility.yul\":3919:3949   */\n      gt\n        /* \"#utility.yul\":3916:4033   */\n      iszero\n      tag_141\n      jumpi\n        /* \"#utility.yul\":3952:4031   */\n      tag_142\n      tag_63\n      jump\t// in\n    tag_142:\n        /* \"#utility.yul\":3916:4033   */\n    tag_141:\n        /* \"#utility.yul\":4065:4130   */\n      tag_143\n        /* \"#utility.yul\":4122:4129   */\n      dup6\n        /* \"#utility.yul\":4113:4119   */\n      dup3\n        /* \"#utility.yul\":4102:4111   */\n      dup7\n        /* \"#utility.yul\":4098:4120   */\n      add\n        /* \"#utility.yul\":4065:4130   */\n      tag_77\n      jump\t// in\n    tag_143:\n        /* \"#utility.yul\":4047:4130   */\n      swap3\n      pop\n      swap3\n      pop\n        /* \"#utility.yul\":3843:4140   */\n      pop\n        /* \"#utility.yul\":3618:4147   */\n      swap3\n      pop\n      swap3\n      swap1\n      pop\n      jump\t// out\n        /* \"#utility.yul\":4153:4827   */\n    tag_27:\n        /* \"#utility.yul\":4233:4239   */\n      0x00\n        /* \"#utility.yul\":4241:4247   */\n      dup1\n        /* \"#utility.yul\":4249:4255   */\n      0x00\n        /* \"#utility.yul\":4298:4300   */\n      0x40\n        /* \"#utility.yul\":4286:4295   */\n      dup5\n        /* \"#utility.yul\":4277:4284   */\n      dup7\n        /* \"#utility.yul\":4273:4296   */\n      sub\n        /* \"#utility.yul\":4269:4301   */\n      slt\n        /* \"#utility.yul\":4266:4385   */\n      iszero\n      tag_145\n      jumpi\n        /* \"#utility.yul\":4304:4383   */\n      tag_146\n      tag_62\n      jump\t// in\n    tag_146:\n        /* \"#utility.yul\":4266:4385   */\n    tag_145:\n        /* \"#utility.yul\":4424:4425   */\n      0x00\n        /* \"#utility.yul\":4449:4502   */\n      tag_147\n        /* \"#utility.yul\":4494:4501   */\n      dup7\n        /* \"#utility.yul\":4485:4491   */\n      dup3\n        /* \"#utility.yul\":4474:4483   */\n      dup8\n        /* \"#utility.yul\":4470:4492   */\n      add\n        /* \"#utility.yul\":4449:4502   */\n      tag_66\n      jump\t// in\n    tag_147:\n        /* \"#utility.yul\":4439:4502   */\n      swap4\n      pop\n        /* \"#utility.yul\":4395:4512   */\n      pop\n        /* \"#utility.yul\":4579:4581   */\n      0x20\n        /* \"#utility.yul\":4568:4577   */\n      dup5\n        /* \"#utility.yul\":4564:4582   */\n      add\n        /* \"#utility.yul\":4551:4583   */\n      calldataload\n        /* \"#utility.yul\":4610:4628   */\n      0xffffffffffffffff\n        /* \"#utility.yul\":4602:4608   */\n      dup2\n        /* \"#utility.yul\":4599:4629   */\n      gt\n        /* \"#utility.yul\":4596:4713   */\n      iszero\n      tag_148\n      jumpi\n        /* \"#utility.yul\":4632:4711   */\n      tag_149\n      tag_63\n      jump\t// in\n    tag_149:\n        /* \"#utility.yul\":4596:4713   */\n    tag_148:\n        /* \"#utility.yul\":4745:4810   */\n      tag_150\n        /* \"#utility.yul\":4802:4809   */\n      dup7\n        /* \"#utility.yul\":4793:4799   */\n      dup3\n        /* \"#utility.yul\":4782:4791   */\n      dup8\n        /* \"#utility.yul\":4778:4800   */\n      add\n        /* \"#utility.yul\":4745:4810   */\n      tag_77\n      jump\t// in\n    tag_150:\n        /* \"#utility.yul\":4727:4810   */\n      swap3\n      pop\n      swap3\n      pop\n        /* \"#utility.yul\":4522:4820   */\n      pop\n        /* \"#utility.yul\":4153:4827   */\n      swap3\n      pop\n      swap3\n      pop\n      swap3\n      jump\t// out\n        /* \"#utility.yul\":4833:5013   */\n    tag_32:\n        /* \"#utility.yul\":4881:4958   */\n      0x4e487b7100000000000000000000000000000000000000000000000000000000\n        /* \"#utility.yul\":4878:4879   */\n      0x00\n        /* \"#utility.yul\":4871:4959   */\n      mstore\n        /* \"#utility.yul\":4978:4982   */\n      0x32\n        /* \"#utility.yul\":4975:4976   */\n      0x04\n        /* \"#utility.yul\":4968:4983   */\n      mstore\n        /* \"#utility.yul\":5002:5006   */\n      0x24\n        /* \"#utility.yul\":4999:5000   */\n      0x00\n        /* \"#utility.yul\":4992:5007   */\n      revert\n        /* \"#utility.yul\":5019:5199   */\n    tag_78:\n        /* \"#utility.yul\":5067:5144   */\n      0x4e487b7100000000000000000000000000000000000000000000000000000000\n        /* \"#utility.yul\":5064:5065   */\n      0x00\n        /* \"#utility.yul\":5057:5145   */\n      mstore\n        /* \"#utility.yul\":5164:5168   */\n      0x22\n        /* \"#utility.yul\":5161:5162   */\n      0x04\n        /* \"#utility.yul\":5154:5169   */\n      mstore\n        /* \"#utility.yul\":5188:5192   */\n      0x24\n        /* \"#utility.yul\":5185:5186   */\n      0x00\n        /* \"#utility.yul\":5178:5193   */\n      revert\n        /* \"#utility.yul\":5205:5525   */\n    tag_35:\n        /* \"#utility.yul\":5249:5255   */\n      0x00\n        /* \"#utility.yul\":5286:5287   */\n      0x02\n        /* \"#utility.yul\":5280:5284   */\n      dup3\n        /* \"#utility.yul\":5276:5288   */\n      div\n        /* \"#utility.yul\":5266:5288   */\n      swap1\n      pop\n        /* \"#utility.yul\":5333:5334   */\n      0x01\n        /* \"#utility.yul\":5327:5331   */\n      dup3\n        /* \"#utility.yul\":5323:5335   */\n      and\n        /* \"#utility.yul\":5354:5372   */\n      dup1\n        /* \"#utility.yul\":5344:5425   */\n      tag_154\n      jumpi\n        /* \"#utility.yul\":5410:5414   */\n      0x7f\n        /* \"#utility.yul\":5402:5408   */\n      dup3\n        /* \"#utility.yul\":5398:5415   */\n      and\n        /* \"#utility.yul\":5388:5415   */\n      swap2\n      pop\n        /* \"#utility.yul\":5344:5425   */\n    tag_154:\n        /* \"#utility.yul\":5472:5474   */\n      0x20\n        /* \"#utility.yul\":5464:5470   */\n      dup3\n        /* \"#utility.yul\":5461:5475   */\n      lt\n        /* \"#utility.yul\":5441:5459   */\n      dup2\n        /* \"#utility.yul\":5438:5476   */\n      sub\n        /* \"#utility.yul\":5435:5519   */\n      tag_155\n      jumpi\n        /* \"#utility.yul\":5491:5509   */\n      tag_156\n      tag_78\n      jump\t// in\n    tag_156:\n        /* \"#utility.yul\":5435:5519   */\n    tag_155:\n        /* \"#utility.yul\":5256:5525   */\n      pop\n        /* \"#utility.yul\":5205:5525   */\n      swap2\n      swap1\n      pop\n      jump\t// out\n        /* \"#utility.yul\":5531:5711   */\n    tag_79:\n        /* \"#utility.yul\":5579:5656   */\n      0x4e487b7100000000000000000000000000000000000000000000000000000000\n        /* \"#utility.yul\":5576:5577   */\n      0x00\n        /* \"#utility.yul\":5569:5657   */\n      mstore\n        /* \"#utility.yul\":5676:5680   */\n      0x41\n        /* \"#utility.yul\":5673:5674   */\n      0x04\n        /* \"#utility.yul\":5666:5681   */\n      mstore\n        /* \"#utility.yul\":5700:5704   */\n      0x24\n        /* \"#utility.yul\":5697:5698   */\n      0x00\n        /* \"#utility.yul\":5690:5705   */\n      revert\n        /* \"#utility.yul\":5717:5858   */\n    tag_80:\n        /* \"#utility.yul\":5766:5770   */\n      0x00\n        /* \"#utility.yul\":5789:5792   */\n      dup2\n        /* \"#utility.yul\":5781:5792   */\n      swap1\n      pop\n        /* \"#utility.yul\":5812:5815   */\n      dup2\n        /* \"#utility.yul\":5809:5810   */\n      0x00\n        /* \"#utility.yul\":5802:5816   */\n      mstore\n        /* \"#utility.yul\":5846:5850   */\n      0x20\n        /* \"#utility.yul\":5843:5844   */\n      0x00\n        /* \"#utility.yul\":5833:5851   */\n      keccak256\n        /* \"#utility.yul\":5825:5851   */\n      swap1\n      pop\n        /* \"#utility.yul\":5717:5858   */\n      swap2\n      swap1\n      pop\n      jump\t// out\n        /* \"#utility.yul\":5864:5957   */\n    tag_81:\n        /* \"#utility.yul\":5901:5907   */\n      0x00\n        /* \"#utility.yul\":5948:5950   */\n      0x20\n        /* \"#utility.yul\":5943:5945   */\n      0x1f\n        /* \"#utility.yul\":5936:5941   */\n      dup4\n        /* \"#utility.yul\":5932:5946   */\n      add\n        /* \"#utility.yul\":5928:5951   */\n      div\n        /* \"#utility.yul\":5918:5951   */\n      swap1\n      pop\n        /* \"#utility.yul\":5864:5957   */\n      swap2\n      swap1\n      pop\n      jump\t// out\n        /* \"#utility.yul\":5963:6070   */\n    tag_82:\n        /* \"#utility.yul\":6007:6015   */\n      0x00\n        /* \"#utility.yul\":6057:6062   */\n      dup3\n        /* \"#utility.yul\":6051:6055   */\n      dup3\n        /* \"#utility.yul\":6047:6063   */\n      shl\n        /* \"#utility.yul\":6026:6063   */\n      swap1\n      pop\n        /* \"#utility.yul\":5963:6070   */\n      swap3\n      swap2\n      pop\n      pop\n      jump\t// out\n        /* \"#utility.yul\":6076:6469   */\n    tag_83:\n        /* \"#utility.yul\":6145:6151   */\n      0x00\n        /* \"#utility.yul\":6195:6196   */\n      0x08\n        /* \"#utility.yul\":6183:6193   */\n      dup4\n        /* \"#utility.yul\":6179:6197   */\n      mul\n        /* \"#utility.yul\":6218:6315   */\n      tag_162\n        /* \"#utility.yul\":6248:6314   */\n      0xffffffffffffffffffffffffffffffffffffffffffffffffffffffffffffffff\n        /* \"#utility.yul\":6237:6246   */\n      dup3\n        /* \"#utility.yul\":6218:6315   */\n      tag_82\n      jump\t// in\n    tag_162:\n        /* \"#utility.yul\":6336:6375   */\n      tag_163\n        /* \"#utility.yul\":6366:6374   */\n      dup7\n        /* \"#utility.yul\":6355:6364   */\n      dup4\n        /* \"#utility.yul\":6336:6375   */\n      tag_82\n      jump\t// in\n    tag_163:\n        /* \"#utility.yul\":6324:6375   */\n      swap6\n      pop\n        /* \"#utility.yul\":6408:6412   */\n      dup1\n        /* \"#utility.yul\":6404:6413   */\n      not\n        /* \"#utility.yul\":6397:6402   */\n      dup5\n        /* \"#utility.yul\":6393:6414   */\n      and\n        /* \"#utility.yul\":6384:6414   */\n      swap4\n      pop\n        /* \"#utility.yul\":6457:6461   */\n      dup1\n        /* \"#utility.yul\":6447:6455   */\n      dup7\n        /* \"#utility.yul\":6443:6462   */\n      and\n        /* \"#utility.yul\":6436:6441   */\n      dup5\n        /* \"#utility.yul\":6433:6463   */\n      or\n        /* \"#utility.yul\":6423:6463   */\n      swap3\n      pop\n        /* \"#utility.yul\":6152:6469   */\n      pop\n      pop\n        /* \"#utility.yul\":6076:6469   */\n      swap4\n      swap3\n      pop\n      pop\n      pop\n      jump\t// out\n        /* \"#utility.yul\":6475:6535   */\n    tag_84:\n        /* \"#utility.yul\":6503:6506   */\n      0x00\n        /* \"#utility.yul\":6524:6529   */\n      dup2\n        /* \"#utility.yul\":6517:6529   */\n      swap1\n      pop\n        /* \"#utility.yul\":6475:6535   */\n      swap2\n      swap1\n      pop\n      jump\t// out\n        /* \"#utility.yul\":6541:6683   */\n    tag_85:\n        /* \"#utility.yul\":6591:6600   */\n      0x00\n        /* \"#utility.yul\":6624:6677   */\n      tag_166\n        /* \"#utility.yul\":6642:6676   */\n      tag_167\n        /* \"#utility.yul\":6651:6675   */\n      tag_168\n        /* \"#utility.yul\":6669:6674   */\n      dup5\n        /* \"#utility.yul\":6651:6675   */\n      tag_64\n      jump\t// in\n    tag_168:\n        /* \"#utility.yul\":6642:6676   */\n      tag_84\n      jump\t// in\n    tag_167:\n        /* \"#utility.yul\":6624:6677   */\n      tag_64\n      jump\t// in\n    tag_166:\n        /* \"#utility.yul\":6611:6677   */\n      swap1\n      pop\n        /* \"#utility.yul\":6541:6683   */\n      swap2\n      swap1\n      pop\n      jump\t// out\n        /* \"#utility.yul\":6689:6764   */\n    tag_86:\n        /* \"#utility.yul\":6732:6735   */\n      0x00\n        /* \"#utility.yul\":6753:6758   */\n      dup2\n        /* \"#utility.yul\":6746:6758   */\n      swap1\n      pop\n        /* \"#utility.yul\":6689:6764   */\n      swap2\n      swap1\n      pop\n      jump\t// out\n        /* \"#utility.yul\":6770:7039   */\n    tag_87:\n        /* \"#utility.yul\":6880:6919   */\n      tag_171\n        /* \"#utility.yul\":6911:6918   */\n      dup4\n        /* \"#utility.yul\":6880:6919   */\n      tag_85\n      jump\t// in\n    tag_171:\n        /* \"#utility.yul\":6941:7032   */\n      tag_172\n        /* \"#utility.yul\":6990:7031   */\n      tag_173\n        /* \"#utility.yul\":7014:7030   */\n      dup3\n        /* \"#utility.yul\":6990:7031   */\n      tag_86\n      jump\t// in\n    tag_173:\n        /* \"#utility.yul\":6982:6988   */\n      dup5\n        /* \"#utility.yul\":6975:6979   */\n      dup5\n        /* \"#utility.yul\":6969:6980   */\n      sload\n        /* \"#utility.yul\":6941:7032   */\n      tag_83\n      jump\t// in\n    tag_172:\n        /* \"#utility.yul\":6935:6939   */\n      dup3\n        /* \"#utility.yul\":6928:7033   */\n      sstore\n        /* \"#utility.yul\":6846:7039   */\n      pop\n        /* \"#utility.yul\":6770:7039   */\n      pop\n      pop\n      pop\n      jump\t// out\n        /* \"#utility.yul\":7045:7118   */\n    tag_88:\n        /* \"#utility.yul\":7090:7093   */\n      0x00\n        /* \"#utility.yul\":7045:7118   */\n      swap1\n      jump\t// out\n        /* \"#utility.yul\":7124:7313   */\n    tag_89:\n        /* \"#utility.yul\":7201:7233   */\n      tag_176\n      tag_88\n      jump\t// in\n    tag_176:\n        /* \"#utility.yul\":7242:7307   */\n      tag_177\n        /* \"#utility.yul\":7300:7306   */\n      dup2\n        /* \"#utility.yul\":7292:7298   */\n      dup5\n        /* \"#utility.yul\":7286:7290   */\n      dup5\n        /* \"#utility.yul\":7242:7307   */\n      tag_87\n      jump\t// in\n    tag_177:\n        /* \"#utility.yul\":7177:7313   */\n      pop\n        /* \"#utility.yul\":7124:7313   */\n      pop\n      pop\n      jump\t// out\n        /* \"#utility.yul\":7319:7505   */\n    tag_90:\n        /* \"#utility.yul\":7379:7499   */\n    tag_179:\n        /* \"#utility.yul\":7396:7399   */\n      dup2\n        /* \"#utility.yul\":7389:7394   */\n      dup2\n        /* \"#utility.yul\":7386:7400   */\n      lt\n        /* \"#utility.yul\":7379:7499   */\n      iszero\n      tag_181\n      jumpi\n        /* \"#utility.yul\":7450:7489   */\n      tag_182\n        /* \"#utility.yul\":7487:7488   */\n      0x00\n        /* \"#utility.yul\":7480:7485   */\n      dup3\n        /* \"#utility.yul\":7450:7489   */\n      tag_89\n      jump\t// in\n    tag_182:\n        /* \"#utility.yul\":7423:7424   */\n      0x01\n        /* \"#utility.yul\":7416:7421   */\n      dup2\n        /* \"#utility.yul\":7412:7425   */\n      add\n        /* \"#utility.yul\":7403:7425   */\n      swap1\n      pop\n        /* \"#utility.yul\":7379:7499   */\n      jump(tag_179)\n    tag_181:\n        /* \"#utility.yul\":7319:7505   */\n      pop\n      pop\n      jump\t// out\n        /* \"#utility.yul\":7511:8054   */\n    tag_91:\n        /* \"#utility.yul\":7612:7614   */\n      0x1f\n        /* \"#utility.yul\":7607:7610   */\n      dup3\n        /* \"#utility.yul\":7604:7615   */\n      gt\n        /* \"#utility.yul\":7601:8047   */\n      iszero\n      tag_184\n      jumpi\n        /* \"#utility.yul\":7646:7684   */\n      tag_185\n        /* \"#utility.yul\":7678:7683   */\n      dup2\n        /* \"#utility.yul\":7646:7684   */\n      tag_80\n      jump\t// in\n    tag_185:\n        /* \"#utility.yul\":7730:7759   */\n      tag_186\n        /* \"#utility.yul\":7748:7758   */\n      dup5\n        /* \"#utility.yul\":7730:7759   */\n      tag_81\n      jump\t// in\n    tag_186:\n        /* \"#utility.yul\":7720:7728   */\n      dup2\n        /* \"#utility.yul\":7716:7760   */\n      add\n        /* \"#utility.yul\":7913:7915   */\n      0x20\n        /* \"#utility.yul\":7901:7911   */\n      dup6\n        /* \"#utility.yul\":7898:7916   */\n      lt\n        /* \"#utility.yul\":7895:7944   */\n      iszero\n      tag_187\n      jumpi\n        /* \"#utility.yul\":7934:7942   */\n      dup2\n        /* \"#utility.yul\":7919:7942   */\n      swap1\n      pop\n        /* \"#utility.yul\":7895:7944   */\n    tag_187:\n        /* \"#utility.yul\":7957:8037   */\n      tag_188\n        /* \"#utility.yul\":8013:8035   */\n      tag_189\n        /* \"#utility.yul\":8031:8034   */\n      dup6\n        /* \"#utility.yul\":8013:8035   */\n      tag_81\n      jump\t// in\n    tag_189:\n        /* \"#utility.yul\":8003:8011   */\n      dup4\n        /* \"#utility.yul\":7999:8036   */\n      add\n        /* \"#utility.yul\":7986:7997   */\n      dup3\n        /* \"#utility.yul\":7957:8037   */\n      tag_90\n      jump\t// in\n    tag_188:\n        /* \"#utility.yul\":7616:8047   */\n      pop\n      pop\n        /* \"#utility.yul\":7601:8047   */\n    tag_184:\n        /* \"#utility.yul\":7511:8054   */\n      pop\n      pop\n      pop\n      jump\t// out\n        /* \"#utility.yul\":8060:8177   */\n    tag_92:\n        /* \"#utility.yul\":8114:8122   */\n      0x00\n        /* \"#utility.yul\":8164:8169   */\n      dup3\n        /* \"#utility.yul\":8158:8162   */\n      dup3\n        /* \"#utility.yul\":8154:8170   */\n      shr\n        /* \"#utility.yul\":8133:8170   */\n      swap1\n      pop\n        /* \"#utility.yul\":8060:8177   */\n      swap3\n      swap2\n      pop\n      pop\n      jump\t// out\n        /* \"#utility.yul\":8183:8352   */\n    tag_93:\n        /* \"#utility.yul\":8227:8233   */\n      0x00\n        /* \"#utility.yul\":8260:8311   */\n      tag_192\n        /* \"#utility.yul\":8308:8309   */\n      0x00\n        /* \"#utility.yul\":8304:8310   */\n      not\n        /* \"#utility.yul\":8296:8301   */\n      dup5\n        /* \"#utility.yul\":8293:8294   */\n      0x08\n        /* \"#utility.yul\":8289:8302   */\n      mul\n        /* \"#utility.yul\":8260:8311   */\n      tag_92\n      jump\t// in\n    tag_192:\n        /* \"#utility.yul\":8256:8312   */\n      not\n        /* \"#utility.yul\":8341:8345   */\n      dup1\n        /* \"#utility.yul\":8335:8339   */\n      dup4\n        /* \"#utility.yul\":8331:8346   */\n      and\n        /* \"#utility.yul\":8321:8346   */\n      swap2\n      pop\n        /* \"#utility.yul\":8234:8352   */\n      pop\n        /* \"#utility.yul\":8183:8352   */\n      swap3\n      swap2\n      pop\n      pop\n      jump\t// out\n        /* \"#utility.yul\":8357:8652   */\n    tag_94:\n        /* \"#utility.yul\":8433:8437   */\n      0x00\n        /* \"#utility.yul\":8579:8608   */\n      tag_194\n        /* \"#utility.yul\":8604:8607   */\n      dup4\n        /* \"#utility.yul\":8598:8602   */\n      dup4\n        /* \"#utility.yul\":8579:8608   */\n      tag_93\n      jump\t// in\n    tag_194:\n        /* \"#utility.yul\":8571:8608   */\n      swap2\n      pop\n        /* \"#utility.yul\":8641:8644   */\n      dup3\n        /* \"#utility.yul\":8638:8639   */\n      0x02\n        /* \"#utility.yul\":8634:8645   */\n      mul\n        /* \"#utility.yul\":8628:8632   */\n      dup3\n        /* \"#utility.yul\":8625:8646   */\n      or\n        /* \"#utility.yul\":8617:8646   */\n      swap1\n      pop\n        /* \"#utility.yul\":8357:8652   */\n      swap3\n      swap2\n      pop\n      pop\n      jump\t// out\n        /* \"#utility.yul\":8657:10052   */\n    tag_47:\n        /* \"#utility.yul\":8774:8811   */\n      tag_196\n        /* \"#utility.yul\":8807:8810   */\n      dup3\n        /* \"#utility.yul\":8774:8811   */\n      tag_67\n      jump\t// in\n    tag_196:\n        /* \"#utility.yul\":8876:8894   */\n      0xffffffffffffffff\n        /* \"#utility.yul\":8868:8874   */\n      dup2\n        /* \"#utility.yul\":8865:8895   */\n      gt\n        /* \"#utility.yul\":8862:8918   */\n      iszero\n      tag_197\n      jumpi\n        /* \"#utility.yul\":8898:8916   */\n      tag_198\n      tag_79\n      jump\t// in\n    tag_198:\n        /* \"#utility.yul\":8862:8918   */\n    tag_197:\n        /* \"#utility.yul\":8942:8980   */\n      tag_199\n        /* \"#utility.yul\":8974:8978   */\n      dup3\n        /* \"#utility.yul\":8968:8979   */\n      sload\n        /* \"#utility.yul\":8942:8980   */\n      tag_35\n      jump\t// in\n    tag_199:\n        /* \"#utility.yul\":9027:9094   */\n      tag_200\n        /* \"#utility.yul\":9087:9093   */\n      dup3\n        /* \"#utility.yul\":9079:9085   */\n      dup3\n        /* \"#utility.yul\":9073:9077   */\n      dup6\n        /* \"#utility.yul\":9027:9094   */\n      tag_91\n      jump\t// in\n    tag_200:\n        /* \"#utility.yul\":9121:9122   */\n      0x00\n        /* \"#utility.yul\":9145:9149   */\n      0x20\n        /* \"#utility.yul\":9132:9149   */\n      swap1\n      pop\n        /* \"#utility.yul\":9177:9179   */\n      0x1f\n        /* \"#utility.yul\":9169:9175   */\n      dup4\n        /* \"#utility.yul\":9166:9180   */\n      gt\n        /* \"#utility.yul\":9194:9195   */\n      0x01\n        /* \"#utility.yul\":9189:9807   */\n      dup2\n      eq\n      tag_202\n      jumpi\n        /* \"#utility.yul\":9851:9852   */\n      0x00\n        /* \"#utility.yul\":9868:9874   */\n      dup5\n        /* \"#utility.yul\":9865:9942   */\n      iszero\n      tag_203\n      jumpi\n        /* \"#utility.yul\":9917:9926   */\n      dup3\n        /* \"#utility.yul\":9912:9915   */\n      dup8\n        /* \"#utility.yul\":9908:9927   */\n      add\n        /* \"#utility.yul\":9902:9928   */\n      mload\n        /* \"#utility.yul\":9893:9928   */\n      swap1\n      pop\n        /* \"#utility.yul\":9865:9942   */\n    tag_203:\n        /* \"#utility.yul\":9968:10035   */\n      tag_204\n        /* \"#utility.yul\":10028:10034   */\n      dup6\n        /* \"#utility.yul\":10021:10026   */\n      dup3\n        /* \"#utility.yul\":9968:10035   */\n      tag_94\n      jump\t// in\n    tag_204:\n        /* \"#utility.yul\":9962:9966   */\n      dup7\n        /* \"#utility.yul\":9955:10036   */\n      sstore\n        /* \"#utility.yul\":9824:10046   */\n      pop\n        /* \"#utility.yul\":9159:10046   */\n      jump(tag_201)\n        /* \"#utility.yul\":9189:9807   */\n    tag_202:\n        /* \"#utility.yul\":9241:9245   */\n      0x1f\n        /* \"#utility.yul\":9237:9246   */\n      not\n        /* \"#utility.yul\":9229:9235   */\n      dup5\n        /* \"#utility.yul\":9225:9247   */\n      and\n        /* \"#utility.yul\":9275:9312   */\n      tag_205\n        /* \"#utility.yul\":9307:9311   */\n      dup7\n        /* \"#utility.yul\":9275:9312   */\n      tag_80\n      jump\t// in\n    tag_205:\n        /* \"#utility.yul\":9334:9335   */\n      0x00\n        /* \"#utility.yul\":9348:9556   */\n    tag_206:\n        /* \"#utility.yul\":9362:9369   */\n      dup3\n        /* \"#utility.yul\":9359:9360   */\n      dup2\n        /* \"#utility.yul\":9356:9370   */\n      lt\n        /* \"#utility.yul\":9348:9556   */\n      iszero\n      tag_208\n      jumpi\n        /* \"#utility.yul\":9441:9450   */\n      dup5\n        /* \"#utility.yul\":9436:9439   */\n      dup10\n        /* \"#utility.yul\":9432:9451   */\n      add\n        /* \"#utility.yul\":9426:9452   */\n      mload\n        /* \"#utility.yul\":9418:9424   */\n      dup3\n        /* \"#utility.yul\":9411:9453   */\n      sstore\n        /* \"#utility.yul\":9492:9493   */\n      0x01\n        /* \"#utility.yul\":9484:9490   */\n      dup3\n        /* \"#utility.yul\":9480:9494   */\n      add\n        /* \"#utility.yul\":9470:9494   */\n      swap2\n      pop\n        /* \"#utility.yul\":9539:9541   */\n      0x20\n        /* \"#utility.yul\":9528:9537   */\n      dup6\n        /* \"#utility.yul\":9524:9542   */\n      add\n        /* \"#utility.yul\":9511:9542   */\n      swap5\n      pop\n        /* \"#utility.yul\":9385:9389   */\n      0x20\n        /* \"#utility.yul\":9382:9383   */\n      dup2\n        /* \"#utility.yul\":9378:9390   */\n      add\n        /* \"#utility.yul\":9373:9390   */\n      swap1\n      pop\n        /* \"#utility.yul\":9348:9556   */\n      jump(tag_206)\n    tag_208:\n        /* \"#utility.yul\":9584:9590   */\n      dup7\n        /* \"#utility.yul\":9575:9582   */\n      dup4\n        /* \"#utility.yul\":9572:9591   */\n      lt\n        /* \"#utility.yul\":9569:9748   */\n      iszero\n      tag_209\n      jumpi\n        /* \"#utility.yul\":9642:9651   */\n      dup5\n        /* \"#utility.yul\":9637:9640   */\n      dup10\n        /* \"#utility.yul\":9633:9652   */\n      add\n        /* \"#utility.yul\":9627:9653   */\n      mload\n        /* \"#utility.yul\":9685:9733   */\n      tag_210\n        /* \"#utility.yul\":9727:9731   */\n      0x1f\n        /* \"#utility.yul\":9719:9725   */\n      dup10\n        /* \"#utility.yul\":9715:9732   */\n      and\n        /* \"#utility.yul\":9704:9713   */\n      dup3\n        /* \"#utility.yul\":9685:9733   */\n      tag_93\n      jump\t// in\n    tag_210:\n        /* \"#utility.yul\":9677:9683   */\n      dup4\n        /* \"#utility.yul\":9670:9734   */\n      sstore\n        /* \"#utility.yul\":9592:9748   */\n      pop\n        /* \"#utility.yul\":9569:9748   */\n    tag_209:\n        /* \"#utility.yul\":9794:9795   */\n      0x01\n        /* \"#utility.yul\":9790:9791   */\n      0x02\n        /* \"#utility.yul\":9782:9788   */\n      dup9\n        /* \"#utility.yul\":9778:9792   */\n      mul\n        /* \"#utility.yul\":9774:9796   */\n      add\n        /* \"#utility.yul\":9768:9772   */\n      dup9\n        /* \"#utility.yul\":9761:9797   */\n      sstore\n        /* \"#utility.yul\":9196:9807   */\n      pop\n      pop\n      pop\n        /* \"#utility.yul\":9159:10046   */\n    tag_201:\n      pop\n        /* \"#utility.yul\":8749:10052   */\n      pop\n      pop\n      pop\n        /* \"#utility.yul\":8657:10052   */\n      pop\n      pop\n      jump\t// out\n        /* \"#utility.yul\":10058:10155   */\n    tag_95:\n        /* \"#utility.yul\":10117:10123   */\n      0x00\n        /* \"#utility.yul\":10145:10148   */\n      dup3\n        /* \"#utility.yul\":10135:10148   */\n      swap1\n      pop\n        /* \"#utility.yul\":10058:10155   */\n      swap3\n      swap2\n      pop\n      pop\n      jump\t// out\n        /* \"#utility.yul\":10161:11564   */\n    tag_60:\n        /* \"#utility.yul\":10285:10329   */\n      tag_213\n        /* \"#utility.yul\":10325:10328   */\n      dup4\n        /* \"#utility.yul\":10320:10323   */\n      dup4\n        /* \"#utility.yul\":10285:10329   */\n      tag_95\n      jump\t// in\n    tag_213:\n        /* \"#utility.yul\":10394:10412   */\n      0xffffffffffffffff\n        /* \"#utility.yul\":10386:10392   */\n      dup2\n        /* \"#utility.yul\":10383:10413   */\n      gt\n        /* \"#utility.yul\":10380:10436   */\n      iszero\n      tag_214\n      jumpi\n        /* \"#utility.yul\":10416:10434   */\n      tag_215\n      tag_79\n      jump\t// in\n    tag_215:\n        /* \"#utility.yul\":10380:10436   */\n    tag_214:\n        /* \"#utility.yul\":10460:10498   */\n      tag_216\n        /* \"#utility.yul\":10492:10496   */\n      dup3\n        /* \"#utility.yul\":10486:10497   */\n      sload\n        /* \"#utility.yul\":10460:10498   */\n      tag_35\n      jump\t// in\n    tag_216:\n        /* \"#utility.yul\":10545:10612   */\n      tag_217\n        /* \"#utility.yul\":10605:10611   */\n      dup3\n        /* \"#utility.yul\":10597:10603   */\n      dup3\n        /* \"#utility.yul\":10591:10595   */\n      dup6\n        /* \"#utility.yul\":10545:10612   */\n      tag_91\n      jump\t// in\n    tag_217:\n        /* \"#utility.yul\":10639:10640   */\n      0x00\n        /* \"#utility.yul\":10668:10670   */\n      0x1f\n        /* \"#utility.yul\":10660:10666   */\n      dup4\n        /* \"#utility.yul\":10657:10671   */\n      gt\n        /* \"#utility.yul\":10685:10686   */\n      0x01\n        /* \"#utility.yul\":10680:11312   */\n      dup2\n      eq\n      tag_219\n      jumpi\n        /* \"#utility.yul\":11356:11357   */\n      0x00\n        /* \"#utility.yul\":11373:11379   */\n      dup5\n        /* \"#utility.yul\":11370:11454   */\n      iszero\n      tag_220\n      jumpi\n        /* \"#utility.yul\":11429:11438   */\n      dup3\n        /* \"#utility.yul\":11424:11427   */\n      dup8\n        /* \"#utility.yul\":11420:11439   */\n      add\n        /* \"#utility.yul\":11407:11440   */\n      calldataload\n        /* \"#utility.yul\":11398:11440   */\n      swap1\n      pop\n        /* \"#utility.yul\":11370:11454   */\n    tag_220:\n        /* \"#utility.yul\":11480:11547   */\n      tag_221\n        /* \"#utility.yul\":11540:11546   */\n      dup6\n        /* \"#utility.yul\":11533:11538   */\n      dup3\n        /* \"#utility.yul\":11480:11547   */\n      tag_94\n      jump\t// in\n    tag_221:\n        /* \"#utility.yul\":11474:11478   */\n      dup7\n        /* \"#utility.yul\":11467:11548   */\n      sstore\n        /* \"#utility.yul\":11329:11558   */\n      pop\n        /* \"#utility.yul\":10650:11558   */\n      jump(tag_218)\n        /* \"#utility.yul\":10680:11312   */\n    tag_219:\n        /* \"#utility.yul\":10732:10736   */\n      0x1f\n        /* \"#utility.yul\":10728:10737   */\n      not\n        /* \"#utility.yul\":10720:10726   */\n      dup5\n        /* \"#utility.yul\":10716:10738   */\n      and\n        /* \"#utility.yul\":10766:10803   */\n      tag_222\n        /* \"#utility.yul\":10798:10802   */\n      dup7\n        /* \"#utility.yul\":10766:10803   */\n      tag_80\n      jump\t// in\n    tag_222:\n        /* \"#utility.yul\":10825:10826   */\n      0x00\n        /* \"#utility.yul\":10839:11054   */\n    tag_223:\n        /* \"#utility.yul\":10853:10860   */\n      dup3\n        /* \"#utility.yul\":10850:10851   */\n      dup2\n        /* \"#utility.yul\":10847:10861   */\n      lt\n        /* \"#utility.yul\":10839:11054   */\n      iszero\n      tag_225\n      jumpi\n        /* \"#utility.yul\":10939:10948   */\n      dup5\n        /* \"#utility.yul\":10934:10937   */\n      dup10\n        /* \"#utility.yul\":10930:10949   */\n      add\n        /* \"#utility.yul\":10917:10950   */\n      calldataload\n        /* \"#utility.yul\":10909:10915   */\n      dup3\n        /* \"#utility.yul\":10902:10951   */\n      sstore\n        /* \"#utility.yul\":10990:10991   */\n      0x01\n        /* \"#utility.yul\":10982:10988   */\n      dup3\n        /* \"#utility.yul\":10978:10992   */\n      add\n        /* \"#utility.yul\":10968:10992   */\n      swap2\n      pop\n        /* \"#utility.yul\":11037:11039   */\n      0x20\n        /* \"#utility.yul\":11026:11035   */\n      dup6\n        /* \"#utility.yul\":11022:11040   */\n      add\n        /* \"#utility.yul\":11009:11040   */\n      swap5\n      pop\n        /* \"#utility.yul\":10876:10880   */\n      0x20\n        /* \"#utility.yul\":10873:10874   */\n      dup2\n        /* \"#utility.yul\":10869:10881   */\n      add\n        /* \"#utility.yul\":10864:10881   */\n      swap1\n      pop\n        /* \"#utility.yul\":10839:11054   */\n      jump(tag_223)\n    tag_225:\n        /* \"#utility.yul\":11082:11088   */\n      dup7\n        /* \"#utility.yul\":11073:11080   */\n      dup4\n        /* \"#utility.yul\":11070:11089   */\n      lt\n        /* \"#utility.yul\":11067:11253   */\n      iszero\n      tag_226\n      jumpi\n        /* \"#utility.yul\":11147:11156   */\n      dup5\n        /* \"#utility.yul\":11142:11145   */\n      dup10\n        /* \"#utility.yul\":11138:11157   */\n      add\n        /* \"#utility.yul\":11125:11158   */\n      calldataload\n        /* \"#utility.yul\":11190:11238   */\n      tag_227\n        /* \"#utility.yul\":11232:11236   */\n      0x1f\n        /* \"#utility.yul\":11224:11230   */\n      dup10\n        /* \"#utility.yul\":11220:11237   */\n      and\n        /* \"#utility.yul\":11209:11218   */\n      dup3\n        /* \"#utility.yul\":11190:11238   */\n      tag_93\n      jump\t// in\n    tag_227:\n        /* \"#utility.yul\":11182:11188   */\n      dup4\n        /* \"#utility.yul\":11175:11239   */\n      sstore\n        /* \"#utility.yul\":11090:11253   */\n      pop\n        /* \"#utility.yul\":11067:11253   */\n    tag_226:\n        /* \"#utility.yul\":11299:11300   */\n      0x01\n        /* \"#utility.yul\":11295:11296   */\n      0x02\n        /* \"#utility.yul\":11287:11293   */\n      dup9\n        /* \"#utility.yul\":11283:11297   */\n      mul\n        /* \"#utility.yul\":11279:11301   */\n      add\n        /* \"#utility.yul\":11273:11277   */\n      dup9\n        /* \"#utility.yul\":11266:11302   */\n      sstore\n        /* \"#utility.yul\":10687:11312   */\n      pop\n      pop\n      pop\n        /* \"#utility.yul\":10650:11558   */\n    tag_218:\n      pop\n        /* \"#utility.yul\":10260:11564   */\n      pop\n      pop\n      pop\n        /* \"#utility.yul\":10161:11564   */\n      pop\n      pop\n      pop\n      jump\t// out\n\n    auxdata: 0xa264697066735822122093bcd2702f50e799db7acf0eb581e455b55534005cf3f404ed64022ad81b931d64736f6c63430008110033\n}\n",
				"bytecode": {
					"linkReferences": {},
					"object": "608060405234801561001057600080fd5b50610aab806100206000396000f3fe608060405234801561001057600080fd5b50600436106100575760003560e01c80639507d39a1461005c5780639527744a1461008d578063b6a46b3b146100a9578063bc8bc2b4146100c5578063cd111614146100f6575b600080fd5b61007660048036038101906100719190610444565b610112565b60405161008492919061051c565b60405180910390f35b6100a760048036038101906100a29190610444565b6101e7565b005b6100c360048036038101906100be91906105b1565b61023e565b005b6100df60048036038101906100da9190610444565b610301565b6040516100ed92919061051c565b60405180910390f35b610110600480360381019061010b91906105fe565b6103ca565b005b60606000806000848154811061012b5761012a61065e565b5b90600052602060002090600202019050806000018160010160009054906101000a900460ff1681805461015d906106bc565b80601f0160208091040260200160405190810160405280929190818152602001828054610189906106bc565b80156101d65780601f106101ab576101008083540402835291602001916101d6565b820191906000526020600020905b8154815290600101906020018083116101b957829003601f168201915b505050505091509250925050915091565b60008082815481106101fc576101fb61065e565b5b906000526020600020906002020190508060010160009054906101000a900460ff16158160010160006101000a81548160ff0219169083151502179055505050565b6000604051806040016040528084848080601f016020809104026020016040519081016040528093929190818152602001838380828437600081840152601f19601f82011690508083019250505050505050815260200160001515815250908060018154018082558091505060019003906000526020600020906002020160009091909190915060008201518160000190816102da91906108c8565b5060208201518160010160006101000a81548160ff02191690831515021790555050505050565b6000818154811061031157600080fd5b9060005260206000209060020201600091509050806000018054610334906106bc565b80601f0160208091040260200160405190810160405280929190818152602001828054610360906106bc565b80156103ad5780601f10610382576101008083540402835291602001916103ad565b820191906000526020600020905b81548152906001019060200180831161039057829003601f168201915b5050505050908060010160009054906101000a900460ff16905082565b8181600085815481106103e0576103df61065e565b5b906000526020600020906002020160000191826103fe9291906109a5565b50505050565b600080fd5b600080fd5b6000819050919050565b6104218161040e565b811461042c57600080fd5b50565b60008135905061043e81610418565b92915050565b60006020828403121561045a57610459610404565b5b60006104688482850161042f565b91505092915050565b600081519050919050565b600082825260208201905092915050565b60005b838110156104ab578082015181840152602081019050610490565b60008484015250505050565b6000601f19601f8301169050919050565b60006104d382610471565b6104dd818561047c565b93506104ed81856020860161048d565b6104f6816104b7565b840191505092915050565b60008115159050919050565b61051681610501565b82525050565b6000604082019050818103600083015261053681856104c8565b9050610545602083018461050d565b9392505050565b600080fd5b600080fd5b600080fd5b60008083601f8401126105715761057061054c565b5b8235905067ffffffffffffffff81111561058e5761058d610551565b5b6020830191508360018202830111156105aa576105a9610556565b5b9250929050565b600080602083850312156105c8576105c7610404565b5b600083013567ffffffffffffffff8111156105e6576105e5610409565b5b6105f28582860161055b565b92509250509250929050565b60008060006040848603121561061757610616610404565b5b60006106258682870161042f565b935050602084013567ffffffffffffffff81111561064657610645610409565b5b6106528682870161055b565b92509250509250925092565b7f4e487b7100000000000000000000000000000000000000000000000000000000600052603260045260246000fd5b7f4e487b7100000000000000000000000000000000000000000000000000000000600052602260045260246000fd5b600060028204905060018216806106d457607f821691505b6020821081036106e7576106e661068d565b5b50919050565b7f4e487b7100000000000000000000000000000000000000000000000000000000600052604160045260246000fd5b60008190508160005260206000209050919050565b60006020601f8301049050919050565b600082821b905092915050565b60006008830261077e7fffffffffffffffffffffffffffffffffffffffffffffffffffffffffffffffff82610741565b6107888683610741565b95508019841693508086168417925050509392505050565b6000819050919050565b60006107c56107c06107bb8461040e565b6107a0565b61040e565b9050919050565b6000819050919050565b6107df836107aa565b6107f36107eb826107cc565b84845461074e565b825550505050565b600090565b6108086107fb565b6108138184846107d6565b505050565b5b818110156108375761082c600082610800565b600181019050610819565b5050565b601f82111561087c5761084d8161071c565b61085684610731565b81016020851015610865578190505b61087961087185610731565b830182610818565b50505b505050565b600082821c905092915050565b600061089f60001984600802610881565b1980831691505092915050565b60006108b8838361088e565b9150826002028217905092915050565b6108d182610471565b67ffffffffffffffff8111156108ea576108e96106ed565b5b6108f482546106bc565b6108ff82828561083b565b600060209050601f8311600181146109325760008415610920578287015190505b61092a85826108ac565b865550610992565b601f1984166109408661071c565b60005b8281101561096857848901518255600182019150602085019450602081019050610943565b868310156109855784890151610981601f89168261088e565b8355505b6001600288020188555050505b505050505050565b600082905092915050565b6109af838361099a565b67ffffffffffffffff8111156109c8576109c76106ed565b5b6109d282546106bc565b6109dd82828561083b565b6000601f831160018114610a0c57600084156109fa578287013590505b610a0485826108ac565b865550610a6c565b601f198416610a1a8661071c565b60005b82811015610a4257848901358255600182019150602085019450602081019050610a1d565b86831015610a5f5784890135610a5b601f89168261088e565b8355505b6001600288020188555050505b5050505050505056fea264697066735822122093bcd2702f50e799db7acf0eb581e455b55534005cf3f404ed64022ad81b931d64736f6c63430008110033",
					"opcodes": "PUSH1 0x80 PUSH1 0x40 MSTORE CALLVALUE DUP1 ISZERO PUSH2 0x10 JUMPI PUSH1 0x0 DUP1 REVERT JUMPDEST POP PUSH2 0xAAB DUP1 PUSH2 0x20 PUSH1 0x0 CODECOPY PUSH1 0x0 RETURN INVALID PUSH1 0x80 PUSH1 0x40 MSTORE CALLVALUE DUP1 ISZERO PUSH2 0x10 JUMPI PUSH1 0x0 DUP1 REVERT JUMPDEST POP PUSH1 0x4 CALLDATASIZE LT PUSH2 0x57 JUMPI PUSH1 0x0 CALLDATALOAD PUSH1 0xE0 SHR DUP1 PUSH4 0x9507D39A EQ PUSH2 0x5C JUMPI DUP1 PUSH4 0x9527744A EQ PUSH2 0x8D JUMPI DUP1 PUSH4 0xB6A46B3B EQ PUSH2 0xA9 JUMPI DUP1 PUSH4 0xBC8BC2B4 EQ PUSH2 0xC5 JUMPI DUP1 PUSH4 0xCD111614 EQ PUSH2 0xF6 JUMPI JUMPDEST PUSH1 0x0 DUP1 REVERT JUMPDEST PUSH2 0x76 PUSH1 0x4 DUP1 CALLDATASIZE SUB DUP2 ADD SWAP1 PUSH2 0x71 SWAP2 SWAP1 PUSH2 0x444 JUMP JUMPDEST PUSH2 0x112 JUMP JUMPDEST PUSH1 0x40 MLOAD PUSH2 0x84 SWAP3 SWAP2 SWAP1 PUSH2 0x51C JUMP JUMPDEST PUSH1 0x40 MLOAD DUP1 SWAP2 SUB SWAP1 RETURN JUMPDEST PUSH2 0xA7 PUSH1 0x4 DUP1 CALLDATASIZE SUB DUP2 ADD SWAP1 PUSH2 0xA2 SWAP2 SWAP1 PUSH2 0x444 JUMP JUMPDEST PUSH2 0x1E7 JUMP JUMPDEST STOP JUMPDEST PUSH2 0xC3 PUSH1 0x4 DUP1 CALLDATASIZE SUB DUP2 ADD SWAP1 PUSH2 0xBE SWAP2 SWAP1 PUSH2 0x5B1 JUMP JUMPDEST PUSH2 0x23E JUMP JUMPDEST STOP JUMPDEST PUSH2 0xDF PUSH1 0x4 DUP1 CALLDATASIZE SUB DUP2 ADD SWAP1 PUSH2 0xDA SWAP2 SWAP1 PUSH2 0x444 JUMP JUMPDEST PUSH2 0x301 JUMP JUMPDEST PUSH1 0x40 MLOAD PUSH2 0xED SWAP3 SWAP2 SWAP1 PUSH2 0x51C JUMP JUMPDEST PUSH1 0x40 MLOAD DUP1 SWAP2 SUB SWAP1 RETURN JUMPDEST PUSH2 0x110 PUSH1 0x4 DUP1 CALLDATASIZE SUB DUP2 ADD SWAP1 PUSH2 0x10B SWAP2 SWAP1 PUSH2 0x5FE JUMP JUMPDEST PUSH2 0x3CA JUMP JUMPDEST STOP JUMPDEST PUSH1 0x60 PUSH1 0x0 DUP1 PUSH1 0x0 DUP5 DUP2 SLOAD DUP2 LT PUSH2 0x12B JUMPI PUSH2 0x12A PUSH2 0x65E JUMP JUMPDEST JUMPDEST SWAP1 PUSH1 0x0 MSTORE PUSH1 0x20 PUSH1 0x0 KECCAK256 SWAP1 PUSH1 0x2 MUL ADD SWAP1 POP DUP1 PUSH1 0x0 ADD DUP2 PUSH1 0x1 ADD PUSH1 0x0 SWAP1 SLOAD SWAP1 PUSH2 0x100 EXP SWAP1 DIV PUSH1 0xFF AND DUP2 DUP1 SLOAD PUSH2 0x15D SWAP1 PUSH2 0x6BC JUMP JUMPDEST DUP1 PUSH1 0x1F ADD PUSH1 0x20 DUP1 SWAP2 DIV MUL PUSH1 0x20 ADD PUSH1 0x40 MLOAD SWAP1 DUP2 ADD PUSH1 0x40 MSTORE DUP1 SWAP3 SWAP2 SWAP1 DUP2 DUP2 MSTORE PUSH1 0x20 ADD DUP3 DUP1 SLOAD PUSH2 0x189 SWAP1 PUSH2 0x6BC JUMP JUMPDEST DUP1 ISZERO PUSH2 0x1D6 JUMPI DUP1 PUSH1 0x1F LT PUSH2 0x1AB JUMPI PUSH2 0x100 DUP1 DUP4 SLOAD DIV MUL DUP4 MSTORE SWAP2 PUSH1 0x20 ADD SWAP2 PUSH2 0x1D6 JUMP JUMPDEST DUP3 ADD SWAP2 SWAP1 PUSH1 0x0 MSTORE PUSH1 0x20 PUSH1 0x0 KECCAK256 SWAP1 JUMPDEST DUP2 SLOAD DUP2 MSTORE SWAP1 PUSH1 0x1 ADD SWAP1 PUSH1 0x20 ADD DUP1 DUP4 GT PUSH2 0x1B9 JUMPI DUP3 SWAP1 SUB PUSH1 0x1F AND DUP3 ADD SWAP2 JUMPDEST POP POP POP POP POP SWAP2 POP SWAP3 POP SWAP3 POP POP SWAP2 POP SWAP2 JUMP JUMPDEST PUSH1 0x0 DUP1 DUP3 DUP2 SLOAD DUP2 LT PUSH2 0x1FC JUMPI PUSH2 0x1FB PUSH2 0x65E JUMP JUMPDEST JUMPDEST SWAP1 PUSH1 0x0 MSTORE PUSH1 0x20 PUSH1 0x0 KECCAK256 SWAP1 PUSH1 0x2 MUL ADD SWAP1 POP DUP1 PUSH1 0x1 ADD PUSH1 0x0 SWAP1 SLOAD SWAP1 PUSH2 0x100 EXP SWAP1 DIV PUSH1 0xFF AND ISZERO DUP2 PUSH1 0x1 ADD PUSH1 0x0 PUSH2 0x100 EXP DUP2 SLOAD DUP2 PUSH1 0xFF MUL NOT AND SWAP1 DUP4 ISZERO ISZERO MUL OR SWAP1 SSTORE POP POP POP JUMP JUMPDEST PUSH1 0x0 PUSH1 0x40 MLOAD DUP1 PUSH1 0x40 ADD PUSH1 0x40 MSTORE DUP1 DUP5 DUP5 DUP1 DUP1 PUSH1 0x1F ADD PUSH1 0x20 DUP1 SWAP2 DIV MUL PUSH1 0x20 ADD PUSH1 0x40 MLOAD SWAP1 DUP2 ADD PUSH1 0x40 MSTORE DUP1 SWAP4 SWAP3 SWAP2 SWAP1 DUP2 DUP2 MSTORE PUSH1 0x20 ADD DUP4 DUP4 DUP1 DUP3 DUP5 CALLDATACOPY PUSH1 0x0 DUP2 DUP5 ADD MSTORE PUSH1 0x1F NOT PUSH1 0x1F DUP3 ADD AND SWAP1 POP DUP1 DUP4 ADD SWAP3 POP POP POP POP POP POP POP DUP2 MSTORE PUSH1 0x20 ADD PUSH1 0x0 ISZERO ISZERO DUP2 MSTORE POP SWAP1 DUP1 PUSH1 0x1 DUP2 SLOAD ADD DUP1 DUP3 SSTORE DUP1 SWAP2 POP POP PUSH1 0x1 SWAP1 SUB SWAP1 PUSH1 0x0 MSTORE PUSH1 0x20 PUSH1 0x0 KECCAK256 SWAP1 PUSH1 0x2 MUL ADD PUSH1 0x0 SWAP1 SWAP2 SWAP1 SWAP2 SWAP1 SWAP2 POP PUSH1 0x0 DUP3 ADD MLOAD DUP2 PUSH1 0x0 ADD SWAP1 DUP2 PUSH2 0x2DA SWAP2 SWAP1 PUSH2 0x8C8 JUMP JUMPDEST POP PUSH1 0x20 DUP3 ADD MLOAD DUP2 PUSH1 0x1 ADD PUSH1 0x0 PUSH2 0x100 EXP DUP2 SLOAD DUP2 PUSH1 0xFF MUL NOT AND SWAP1 DUP4 ISZERO ISZERO MUL OR SWAP1 SSTORE POP POP POP POP POP JUMP JUMPDEST PUSH1 0x0 DUP2 DUP2 SLOAD DUP2 LT PUSH2 0x311 JUMPI PUSH1 0x0 DUP1 REVERT JUMPDEST SWAP1 PUSH1 0x0 MSTORE PUSH1 0x20 PUSH1 0x0 KECCAK256 SWAP1 PUSH1 0x2 MUL ADD PUSH1 0x0 SWAP2 POP SWAP1 POP DUP1 PUSH1 0x0 ADD DUP1 SLOAD PUSH2 0x334 SWAP1 PUSH2 0x6BC JUMP JUMPDEST DUP1 PUSH1 0x1F ADD PUSH1 0x20 DUP1 SWAP2 DIV MUL PUSH1 0x20 ADD PUSH1 0x40 MLOAD SWAP1 DUP2 ADD PUSH1 0x40 MSTORE DUP1 SWAP3 SWAP2 SWAP1 DUP2 DUP2 MSTORE PUSH1 0x20 ADD DUP3 DUP1 SLOAD PUSH2 0x360 SWAP1 PUSH2 0x6BC JUMP JUMPDEST DUP1 ISZERO PUSH2 0x3AD JUMPI DUP1 PUSH1 0x1F LT PUSH2 0x382 JUMPI PUSH2 0x100 DUP1 DUP4 SLOAD DIV MUL DUP4 MSTORE SWAP2 PUSH1 0x20 ADD SWAP2 PUSH2 0x3AD JUMP JUMPDEST DUP3 ADD SWAP2 SWAP1 PUSH1 0x0 MSTORE PUSH1 0x20 PUSH1 0x0 KECCAK256 SWAP1 JUMPDEST DUP2 SLOAD DUP2 MSTORE SWAP1 PUSH1 0x1 ADD SWAP1 PUSH1 0x20 ADD DUP1 DUP4 GT PUSH2 0x390 JUMPI DUP3 SWAP1 SUB PUSH1 0x1F AND DUP3 ADD SWAP2 JUMPDEST POP POP POP POP POP SWAP1 DUP1 PUSH1 0x1 ADD PUSH1 0x0 SWAP1 SLOAD SWAP1 PUSH2 0x100 EXP SWAP1 DIV PUSH1 0xFF AND SWAP1 POP DUP3 JUMP JUMPDEST DUP2 DUP2 PUSH1 0x0 DUP6 DUP2 SLOAD DUP2 LT PUSH2 0x3E0 JUMPI PUSH2 0x3DF PUSH2 0x65E JUMP JUMPDEST JUMPDEST SWAP1 PUSH1 0x0 MSTORE PUSH1 0x20 PUSH1 0x0 KECCAK256 SWAP1 PUSH1 0x2 MUL ADD PUSH1 0x0 ADD SWAP2 DUP3 PUSH2 0x3FE SWAP3 SWAP2 SWAP1 PUSH2 0x9A5 JUMP JUMPDEST POP POP POP POP JUMP JUMPDEST PUSH1 0x0 DUP1 REVERT JUMPDEST PUSH1 0x0 DUP1 REVERT JUMPDEST PUSH1 0x0 DUP2 SWAP1 POP SWAP2 SWAP1 POP JUMP JUMPDEST PUSH2 0x421 DUP2 PUSH2 0x40E JUMP JUMPDEST DUP2 EQ PUSH2 0x42C JUMPI PUSH1 0x0 DUP1 REVERT JUMPDEST POP JUMP JUMPDEST PUSH1 0x0 DUP2 CALLDATALOAD SWAP1 POP PUSH2 0x43E DUP2 PUSH2 0x418 JUMP JUMPDEST SWAP3 SWAP2 POP POP JUMP JUMPDEST PUSH1 0x0 PUSH1 0x20 DUP3 DUP5 SUB SLT ISZERO PUSH2 0x45A JUMPI PUSH2 0x459 PUSH2 0x404 JUMP JUMPDEST JUMPDEST PUSH1 0x0 PUSH2 0x468 DUP5 DUP3 DUP6 ADD PUSH2 0x42F JUMP JUMPDEST SWAP2 POP POP SWAP3 SWAP2 POP POP JUMP JUMPDEST PUSH1 0x0 DUP2 MLOAD SWAP1 POP SWAP2 SWAP1 POP JUMP JUMPDEST PUSH1 0x0 DUP3 DUP3 MSTORE PUSH1 0x20 DUP3 ADD SWAP1 POP SWAP3 SWAP2 POP POP JUMP JUMPDEST PUSH1 0x0 JUMPDEST DUP4 DUP2 LT ISZERO PUSH2 0x4AB JUMPI DUP1 DUP3 ADD MLOAD DUP2 DUP5 ADD MSTORE PUSH1 0x20 DUP2 ADD SWAP1 POP PUSH2 0x490 JUMP JUMPDEST PUSH1 0x0 DUP5 DUP5 ADD MSTORE POP POP POP POP JUMP JUMPDEST PUSH1 0x0 PUSH1 0x1F NOT PUSH1 0x1F DUP4 ADD AND SWAP1 POP SWAP2 SWAP1 POP JUMP JUMPDEST PUSH1 0x0 PUSH2 0x4D3 DUP3 PUSH2 0x471 JUMP JUMPDEST PUSH2 0x4DD DUP2 DUP6 PUSH2 0x47C JUMP JUMPDEST SWAP4 POP PUSH2 0x4ED DUP2 DUP6 PUSH1 0x20 DUP7 ADD PUSH2 0x48D JUMP JUMPDEST PUSH2 0x4F6 DUP2 PUSH2 0x4B7 JUMP JUMPDEST DUP5 ADD SWAP2 POP POP SWAP3 SWAP2 POP POP JUMP JUMPDEST PUSH1 0x0 DUP2 ISZERO ISZERO SWAP1 POP SWAP2 SWAP1 POP JUMP JUMPDEST PUSH2 0x516 DUP2 PUSH2 0x501 JUMP JUMPDEST DUP3 MSTORE POP POP JUMP JUMPDEST PUSH1 0x0 PUSH1 0x40 DUP3 ADD SWAP1 POP DUP2 DUP2 SUB PUSH1 0x0 DUP4 ADD MSTORE PUSH2 0x536 DUP2 DUP6 PUSH2 0x4C8 JUMP JUMPDEST SWAP1 POP PUSH2 0x545 PUSH1 0x20 DUP4 ADD DUP5 PUSH2 0x50D JUMP JUMPDEST SWAP4 SWAP3 POP POP POP JUMP JUMPDEST PUSH1 0x0 DUP1 REVERT JUMPDEST PUSH1 0x0 DUP1 REVERT JUMPDEST PUSH1 0x0 DUP1 REVERT JUMPDEST PUSH1 0x0 DUP1 DUP4 PUSH1 0x1F DUP5 ADD SLT PUSH2 0x571 JUMPI PUSH2 0x570 PUSH2 0x54C JUMP JUMPDEST JUMPDEST DUP3 CALLDATALOAD SWAP1 POP PUSH8 0xFFFFFFFFFFFFFFFF DUP2 GT ISZERO PUSH2 0x58E JUMPI PUSH2 0x58D PUSH2 0x551 JUMP JUMPDEST JUMPDEST PUSH1 0x20 DUP4 ADD SWAP2 POP DUP4 PUSH1 0x1 DUP3 MUL DUP4 ADD GT ISZERO PUSH2 0x5AA JUMPI PUSH2 0x5A9 PUSH2 0x556 JUMP JUMPDEST JUMPDEST SWAP3 POP SWAP3 SWAP1 POP JUMP JUMPDEST PUSH1 0x0 DUP1 PUSH1 0x20 DUP4 DUP6 SUB SLT ISZERO PUSH2 0x5C8 JUMPI PUSH2 0x5C7 PUSH2 0x404 JUMP JUMPDEST JUMPDEST PUSH1 0x0 DUP4 ADD CALLDATALOAD PUSH8 0xFFFFFFFFFFFFFFFF DUP2 GT ISZERO PUSH2 0x5E6 JUMPI PUSH2 0x5E5 PUSH2 0x409 JUMP JUMPDEST JUMPDEST PUSH2 0x5F2 DUP6 DUP3 DUP7 ADD PUSH2 0x55B JUMP JUMPDEST SWAP3 POP SWAP3 POP POP SWAP3 POP SWAP3 SWAP1 POP JUMP JUMPDEST PUSH1 0x0 DUP1 PUSH1 0x0 PUSH1 0x40 DUP5 DUP7 SUB SLT ISZERO PUSH2 0x617 JUMPI PUSH2 0x616 PUSH2 0x404 JUMP JUMPDEST JUMPDEST PUSH1 0x0 PUSH2 0x625 DUP7 DUP3 DUP8 ADD PUSH2 0x42F JUMP JUMPDEST SWAP4 POP POP PUSH1 0x20 DUP5 ADD CALLDATALOAD PUSH8 0xFFFFFFFFFFFFFFFF DUP2 GT ISZERO PUSH2 0x646 JUMPI PUSH2 0x645 PUSH2 0x409 JUMP JUMPDEST JUMPDEST PUSH2 0x652 DUP7 DUP3 DUP8 ADD PUSH2 0x55B JUMP JUMPDEST SWAP3 POP SWAP3 POP POP SWAP3 POP SWAP3 POP SWAP3 JUMP JUMPDEST PUSH32 0x4E487B7100000000000000000000000000000000000000000000000000000000 PUSH1 0x0 MSTORE PUSH1 0x32 PUSH1 0x4 MSTORE PUSH1 0x24 PUSH1 0x0 REVERT JUMPDEST PUSH32 0x4E487B7100000000000000000000000000000000000000000000000000000000 PUSH1 0x0 MSTORE PUSH1 0x22 PUSH1 0x4 MSTORE PUSH1 0x24 PUSH1 0x0 REVERT JUMPDEST PUSH1 0x0 PUSH1 0x2 DUP3 DIV SWAP1 POP PUSH1 0x1 DUP3 AND DUP1 PUSH2 0x6D4 JUMPI PUSH1 0x7F DUP3 AND SWAP2 POP JUMPDEST PUSH1 0x20 DUP3 LT DUP2 SUB PUSH2 0x6E7 JUMPI PUSH2 0x6E6 PUSH2 0x68D JUMP JUMPDEST JUMPDEST POP SWAP2 SWAP1 POP JUMP JUMPDEST PUSH32 0x4E487B7100000000000000000000000000000000000000000000000000000000 PUSH1 0x0 MSTORE PUSH1 0x41 PUSH1 0x4 MSTORE PUSH1 0x24 PUSH1 0x0 REVERT JUMPDEST PUSH1 0x0 DUP2 SWAP1 POP DUP2 PUSH1 0x0 MSTORE PUSH1 0x20 PUSH1 0x0 KECCAK256 SWAP1 POP SWAP2 SWAP1 POP JUMP JUMPDEST PUSH1 0x0 PUSH1 0x20 PUSH1 0x1F DUP4 ADD DIV SWAP1 POP SWAP2 SWAP1 POP JUMP JUMPDEST PUSH1 0x0 DUP3 DUP3 SHL SWAP1 POP SWAP3 SWAP2 POP POP JUMP JUMPDEST PUSH1 0x0 PUSH1 0x8 DUP4 MUL PUSH2 0x77E PUSH32 0xFFFFFFFFFFFFFFFFFFFFFFFFFFFFFFFFFFFFFFFFFFFFFFFFFFFFFFFFFFFFFFFF DUP3 PUSH2 0x741 JUMP JUMPDEST PUSH2 0x788 DUP7 DUP4 PUSH2 0x741 JUMP JUMPDEST SWAP6 POP DUP1 NOT DUP5 AND SWAP4 POP DUP1 DUP7 AND DUP5 OR SWAP3 POP POP POP SWAP4 SWAP3 POP POP POP JUMP JUMPDEST PUSH1 0x0 DUP2 SWAP1 POP SWAP2 SWAP1 POP JUMP JUMPDEST PUSH1 0x0 PUSH2 0x7C5 PUSH2 0x7C0 PUSH2 0x7BB DUP5 PUSH2 0x40E JUMP JUMPDEST PUSH2 0x7A0 JUMP JUMPDEST PUSH2 0x40E JUMP JUMPDEST SWAP1 POP SWAP2 SWAP1 POP JUMP JUMPDEST PUSH1 0x0 DUP2 SWAP1 POP SWAP2 SWAP1 POP JUMP JUMPDEST PUSH2 0x7DF DUP4 PUSH2 0x7AA JUMP JUMPDEST PUSH2 0x7F3 PUSH2 0x7EB DUP3 PUSH2 0x7CC JUMP JUMPDEST DUP5 DUP5 SLOAD PUSH2 0x74E JUMP JUMPDEST DUP3 SSTORE POP POP POP POP JUMP JUMPDEST PUSH1 0x0 SWAP1 JUMP JUMPDEST PUSH2 0x808 PUSH2 0x7FB JUMP JUMPDEST PUSH2 0x813 DUP2 DUP5 DUP5 PUSH2 0x7D6 JUMP JUMPDEST POP POP POP JUMP JUMPDEST JUMPDEST DUP2 DUP2 LT ISZERO PUSH2 0x837 JUMPI PUSH2 0x82C PUSH1 0x0 DUP3 PUSH2 0x800 JUMP JUMPDEST PUSH1 0x1 DUP2 ADD SWAP1 POP PUSH2 0x819 JUMP JUMPDEST POP POP JUMP JUMPDEST PUSH1 0x1F DUP3 GT ISZERO PUSH2 0x87C JUMPI PUSH2 0x84D DUP2 PUSH2 0x71C JUMP JUMPDEST PUSH2 0x856 DUP5 PUSH2 0x731 JUMP JUMPDEST DUP2 ADD PUSH1 0x20 DUP6 LT ISZERO PUSH2 0x865 JUMPI DUP2 SWAP1 POP JUMPDEST PUSH2 0x879 PUSH2 0x871 DUP6 PUSH2 0x731 JUMP JUMPDEST DUP4 ADD DUP3 PUSH2 0x818 JUMP JUMPDEST POP POP JUMPDEST POP POP POP JUMP JUMPDEST PUSH1 0x0 DUP3 DUP3 SHR SWAP1 POP SWAP3 SWAP2 POP POP JUMP JUMPDEST PUSH1 0x0 PUSH2 0x89F PUSH1 0x0 NOT DUP5 PUSH1 0x8 MUL PUSH2 0x881 JUMP JUMPDEST NOT DUP1 DUP4 AND SWAP2 POP POP SWAP3 SWAP2 POP POP JUMP JUMPDEST PUSH1 0x0 PUSH2 0x8B8 DUP4 DUP4 PUSH2 0x88E JUMP JUMPDEST SWAP2 POP DUP3 PUSH1 0x2 MUL DUP3 OR SWAP1 POP SWAP3 SWAP2 POP POP JUMP JUMPDEST PUSH2 0x8D1 DUP3 PUSH2 0x471 JUMP JUMPDEST PUSH8 0xFFFFFFFFFFFFFFFF DUP2 GT ISZERO PUSH2 0x8EA JUMPI PUSH2 0x8E9 PUSH2 0x6ED JUMP JUMPDEST JUMPDEST PUSH2 0x8F4 DUP3 SLOAD PUSH2 0x6BC JUMP JUMPDEST PUSH2 0x8FF DUP3 DUP3 DUP6 PUSH2 0x83B JUMP JUMPDEST PUSH1 0x0 PUSH1 0x20 SWAP1 POP PUSH1 0x1F DUP4 GT PUSH1 0x1 DUP2 EQ PUSH2 0x932 JUMPI PUSH1 0x0 DUP5 ISZERO PUSH2 0x920 JUMPI DUP3 DUP8 ADD MLOAD SWAP1 POP JUMPDEST PUSH2 0x92A DUP6 DUP3 PUSH2 0x8AC JUMP JUMPDEST DUP7 SSTORE POP PUSH2 0x992 JUMP JUMPDEST PUSH1 0x1F NOT DUP5 AND PUSH2 0x940 DUP7 PUSH2 0x71C JUMP JUMPDEST PUSH1 0x0 JUMPDEST DUP3 DUP2 LT ISZERO PUSH2 0x968 JUMPI DUP5 DUP10 ADD MLOAD DUP3 SSTORE PUSH1 0x1 DUP3 ADD SWAP2 POP PUSH1 0x20 DUP6 ADD SWAP5 POP PUSH1 0x20 DUP2 ADD SWAP1 POP PUSH2 0x943 JUMP JUMPDEST DUP7 DUP4 LT ISZERO PUSH2 0x985 JUMPI DUP5 DUP10 ADD MLOAD PUSH2 0x981 PUSH1 0x1F DUP10 AND DUP3 PUSH2 0x88E JUMP JUMPDEST DUP4 SSTORE POP JUMPDEST PUSH1 0x1 PUSH1 0x2 DUP9 MUL ADD DUP9 SSTORE POP POP POP JUMPDEST POP POP POP POP POP POP JUMP JUMPDEST PUSH1 0x0 DUP3 SWAP1 POP SWAP3 SWAP2 POP POP JUMP JUMPDEST PUSH2 0x9AF DUP4 DUP4 PUSH2 0x99A JUMP JUMPDEST PUSH8 0xFFFFFFFFFFFFFFFF DUP2 GT ISZERO PUSH2 0x9C8 JUMPI PUSH2 0x9C7 PUSH2 0x6ED JUMP JUMPDEST JUMPDEST PUSH2 0x9D2 DUP3 SLOAD PUSH2 0x6BC JUMP JUMPDEST PUSH2 0x9DD DUP3 DUP3 DUP6 PUSH2 0x83B JUMP JUMPDEST PUSH1 0x0 PUSH1 0x1F DUP4 GT PUSH1 0x1 DUP2 EQ PUSH2 0xA0C JUMPI PUSH1 0x0 DUP5 ISZERO PUSH2 0x9FA JUMPI DUP3 DUP8 ADD CALLDATALOAD SWAP1 POP JUMPDEST PUSH2 0xA04 DUP6 DUP3 PUSH2 0x8AC JUMP JUMPDEST DUP7 SSTORE POP PUSH2 0xA6C JUMP JUMPDEST PUSH1 0x1F NOT DUP5 AND PUSH2 0xA1A DUP7 PUSH2 0x71C JUMP JUMPDEST PUSH1 0x0 JUMPDEST DUP3 DUP2 LT ISZERO PUSH2 0xA42 JUMPI DUP5 DUP10 ADD CALLDATALOAD DUP3 SSTORE PUSH1 0x1 DUP3 ADD SWAP2 POP PUSH1 0x20 DUP6 ADD SWAP5 POP PUSH1 0x20 DUP2 ADD SWAP1 POP PUSH2 0xA1D JUMP JUMPDEST DUP7 DUP4 LT ISZERO PUSH2 0xA5F JUMPI DUP5 DUP10 ADD CALLDATALOAD PUSH2 0xA5B PUSH1 0x1F DUP10 AND DUP3 PUSH2 0x88E JUMP JUMPDEST DUP4 SSTORE POP JUMPDEST PUSH1 0x1 PUSH1 0x2 DUP9 MUL ADD DUP9 SSTORE POP POP POP JUMPDEST POP POP POP POP POP POP POP JUMP INVALID LOG2 PUSH5 0x6970667358 0x22 SLT KECCAK256 SWAP4 0xBC 0xD2 PUSH17 0x2F50E799DB7ACF0EB581E455B55534005C RETURN DELEGATECALL DIV 0xED PUSH5 0x22AD81B93 SAR PUSH5 0x736F6C6343 STOP ADDMOD GT STOP CALLER "
				},
				"gasEstimates": {
					"creation": {
						"codeDepositCost": "546200",
						"executionCost": "581",
						"totalCost": "546781"
					},
					"external": {
						"completeToggle(uint256)": "29028",
						"create(string)": "infinite",
						"get(uint256)": "infinite",
						"todos(uint256)": "infinite",
						"updateText(uint256,string)": "infinite"
					}
				},
				"methodIdentifiers": {
					"completeToggle(uint256)": "9527744a",
					"create(string)": "b6a46b3b",
					"get(uint256)": "9507d39a",
					"todos(uint256)": "bc8bc2b4",
					"updateText(uint256,string)": "cd111614"
				}
			},
			"storageLayout": {
				"storage": [
					{
						"astId": 13,
						"contract": "Todos.sol:Todos",
						"label": "todos",
						"offset": 0,
						"slot": "0",
						"type": "t_array(t_struct(Todo)6_storage)dyn_storage"
					}
				],
				"types": {
					"t_array(t_struct(Todo)6_storage)dyn_storage": {
						"base": "t_struct(Todo)6_storage",
						"encoding": "dynamic_array",
						"label": "struct Todo[]",
						"numberOfBytes": "32"
					},
					"t_bool": {
						"encoding": "inplace",
						"label": "bool",
						"numberOfBytes": "1"
					},
					"t_string_storage": {
						"encoding": "bytes",
						"label": "string",
						"numberOfBytes": "32"
					},
					"t_struct(Todo)6_storage": {
						"encoding": "inplace",
						"label": "struct Todo",
						"members": [
							{
								"astId": 3,
								"contract": "Todos.sol:Todos",
								"label": "text",
								"offset": 0,
								"slot": "0",
								"type": "t_string_storage"
							},
							{
								"astId": 5,
								"contract": "Todos.sol:Todos",
								"label": "isCompleted",
								"offset": 0,
								"slot": "1",
								"type": "t_bool"
							}
						],
						"numberOfBytes": "64"
					}
				}
			},
			"userdoc": {
				"kind": "user",
				"methods": {},
				"version": 1
			}
		}
	}
}